:020000040800F2
:100000007816002045010008BF0F0008530F0008B4
:10001000BD0F0008710D0008F31B00080000000070
:10002000000000000000000000000000131700089E
:10003000730D00080000000061100008C9170008D7
:100040005F0100085F0100085F0100085F01000810
:100050005F0100085F0100085F0100085F01000800
:100060005F010008CD0D0008190E00085F010008AF
:100070005F0100085F0100085F0100085F010008E0
:100080005F0100085F0100085F0100085F010008D0
:100090005F0100085F0100085F010008450E0008CD
:1000A0005F0100085F0100085F0100085F010008B0
:1000B0005F0100085F0100085F0100085F010008A0
:1000C0005F0100085F0100085F0100085F01000890
:1000D0005F0100085F0100085F010008A518000823
:1000E0005F0100085F0100085F0100085F01000870
:1000F0005F0100085F0100085F0100085F01000860
:100100005F0100085F0100085F0100085F0100084F
:100110005F0100085F0100085F0100085F0100083F
:100120005F0100085F0100085F0100085F0100082F
:10013000DFF80CD000F0CCFB00480047B92F0008D6
:10014000781600200648804706480047FEE7FEE78D
:10015000FEE7FEE7FEE7FEE7FEE7FEE7FEE7FEE777
:10016000551800083101000840EA01039B0703D03D
:1001700009E008C9121F08C0042AFAD203E011F8E6
:10018000013B00F8013B521EF9D27047D2B201E0A8
:1001900000F8012B491EFBD270470022F6E710B58C
:1001A00013460A4604461946FFF7F0FF204610BDE5
:1001B00030B504460020034600E05B1C934203D2A6
:1001C000E05CCD5C401BF8D030BD30B5054600206A
:1001D000034600E05B1C934205D2EC5CC85C201A2D
:1001E00001D1002CF6D130BD0FB400B58DB010A9EF
:1001F00009900B9000914FF0FF300A9000200C9076
:1002000005480690054807906A4609A80F9900F02E
:1002100079F90DB05DF814FB210500083F050008D1
:100220002DE9FF5F1D464FF0FF3BD5E901469146A2
:100230005F464FF00008A9697F1C01988847296A2A
:10024000824688470028F6D1BAF1FF3F0CD024F44B
:10025000C064002E19DD600614D5BAF12B0F09D049
:10026000BAF12D0F0ED103E0584604B0BDE8F09F5F
:1002700044F48064A9697F1C01988847761E8246F1
:10028000002E02DDBAF1300F03D0B9F1000F26D0F5
:1002900032E0A969761E44F400747F1C01988847F7
:1002A0008246002E05DDBAF1780F06D0BAF1580F5C
:1002B00003D0B9F1000F10D01EE0B9F1000F02D049
:1002C000B9F1100F18D1A969761E24F400747F1CAF
:1002D000019888478246102002E0082000E00A20AA
:1002E000814609E008FB0908A969761E44F40074F8
:1002F0007F1C019888478246002E05DD49465046FE
:1003000000F0EBF80028EDDAE96901988847A005CC
:1003100002D46FF00100A8E7E00725D1600613D5ED
:10032000600502D5C8F1000000E0404629680A1DBA
:100330002A600968220501D5087015E0220701D559
:10034000088011E008600FE02868011D296000683E
:10035000210502D580F8008006E0210702D5A0F82B
:10036000008001E0C0F8008038467EE72DE9FF5F9D
:10037000D2E901A74FF00008916999461446DDF8CB
:1003800038B0464601988847054659EA0B0005D023
:1003900009E0A169761C019888470546216A28462C
:1003A00088470028F5D1681C03D05FEACA7005D0E1
:1003B00015E04FF0FF3004B0BDE8F09F2068011D4C
:1003C0002160D0F800800AE05FEACA7001D108F825
:1003D000015BA169761C7F1E019888470546002FA6
:1003E0001ADD681C18D0B9F1000F0DD0E81705EB25
:1003F000D060421120F01F0059F822102A1A012063
:1004000090400142E0D107E0BBF1000FDCD1216A4E
:10041000284688470028D7D0E16901988847BBF172
:10042000000F07D1002E05DD5FEACA7002D100215E
:1004300088F80010A068B84203DDBBF1000F03D0BC
:1004400017B16FF00100B6E73046B4E730B50B46A0
:10045000014600202022012409E021FA02F59D42F4
:1004600005D303FA02F5491B04FA02F52844151EC8
:10047000A2F10102F1DC30BD2DE9F05F054600205C
:1004800092469B4688460646814640241BE0284605
:1004900041464746224600F03CFA53465A46C01AA7
:1004A000914110D311461846224600F023FA2D1A26
:1004B00067EB01084F4622460120002100F01AFA9E
:1004C00017EB00094E41201EA4F10104DFDC484671
:1004D00031462A464346BDE8F09F3A2800D23038DC
:1004E00020F02002412A01D3A2F13700884201D333
:1004F0004FF0FF307047000002681144137801602C
:1005000018467047D16004495161044911620021C5
:100510001161114600F024BAF904000857090008D7
:10052000426842B1016811F8013B23B1521EC0E993
:100530000012184670470121C160881E704742684A
:100540005AB1C368016843B983688B4205D0491E1C
:10055000521CC0E90012002070474FF0FF30704776
:100560002DE9FE4F804681EA0300C00F0C46009043
:1005700021F0004123F00045B8EB0200A94105D26B
:100580004046214690461C460B46024623F000405A
:10059000104347D0270DC7F30A00C3F30A51029056
:1005A000401A019040286BDAC3F3130040F4801B1B
:1005B0000098924620B10023D2EB030A63EB0B0BA9
:1005C00001985946C0F14002504600F093F90646A2
:1005D0000D4650465946019A00F0ABF910EB080061
:1005E0006141002487EA115284EAE7731A4340D03C
:1005F000009A62B3019A012A4FEA075215DC001BE8
:1006000061EB02014FF0004202EA0752CDE90042DD
:10061000001C41F5801132462B4600F046FB03B02A
:10062000BDE8F08F40462146F9E7001B61EB02016F
:10063000001C41F5801300185B412018A2F500173B
:1006400047EB030140EAD570B6196D4111E06D0822
:100650004FEA360645EAC0754FEA0752001B61EBC8
:100660000201001C41F5801149084FEA30000019D1
:10067000514132462B4603B0BDE8F04F00F006BBB7
:100680000098012240000023D0EB020263EBE073EC
:10069000009821464FEAE074B8EB000061EB0401DA
:1006A000E9E783F000435BE781F0004158E72DE97B
:1006B000FE4F81EA030404F0004421F0004100945D
:1006C0004FF0000B23F0004350EA01045ED052EAE1
:1006D00003045BD0C3F30A54C1F30A552C44A4F2BB
:1006E000F3340194A0FB0254C1F3130141F48011CF
:1006F000C3F3130343F4801301FB024400FB034ED6
:10070000840A970A44EA815447EA8357A4FB07689E
:1007100002958D0A05FB07854FEA932C04FB0C54C8
:100720002705029D4FEA065847EA1637B5EB08053C
:100730006EEB070C870E920E47EA811742EA83128E
:10074000A7FB0201B6EB0B0164EB00042B0D43EA9F
:100750000C335E1844EB1C50DA465146E7FB0201AD
:10076000C5F313044FEA0B3343EA14534FEA043240
:10077000019C43EA0603A4F10C040294009CCDE919
:1007800000B400F092FA03B0BDE8F08F00200146FB
:10079000F9E72DE9F04D81EA030404F0004B21F064
:1007A000004514464FF0000A23F0004150EA0502CC
:1007B00020D054EA01021DD0C5F30A570246C5F302
:1007C0001303C1F31300C1F30A5640F4801543F438
:1007D0008013A7EB0608101BD64608F2FD3873EB12
:1007E000050002D308F1010801E092185B41B8F15D
:1007F000000F03DA00200146BDE8F08D00204FF421
:100800008011064684460EE0171B73EB050705D3DF
:10081000121B63EB050306434CEA010C49084FEA3F
:10082000300092185B4150EA0107EDD152EA030013
:1008300012D082EA040083EA0501084305D0101BA8
:10084000AB4106D20122002306E000224FF0004314
:1008500002E06FF0010253101AEB06004CEB085156
:1008600010EB0A0041EB0B01BDE8F04D00F00EBAB1
:10087000C1F30A52C1F3130140F2FF3341F4801176
:100880009A4202DA00200146704740F233439A420E
:10089000A2F2334202DC524200F03BB800F02AB828
:1008A00030B5041E71F1000404DB4FF000444042F7
:1008B00064EB0101141E73F1000405DB1C464FF0CC
:1008C0000043524263EB0403994208BF904230BD9B
:1008D000064C074D06E0E06840F0010394E807008D
:1008E00098471034AC42F6D3FFF726FC4C3600088C
:1008F0006C360008202A04DB203A00FA02F10020BE
:1009000070479140C2F1200320FA03F3194390404D
:100910007047202A04DB203A21FA02F000217047B8
:1009200021FA02F3D040C2F1200291400843194657
:100930007047202A06DBCB17203A41FA02F043EA3F
:10094000E07306E041FA02F3D040C2F12002914088
:10095000084319467047C0B24FF4F05100F0F4B9A3
:100960002DE9F34F8BB04FF0000801F10C000C465D
:100970004FF0010B46460DF1080A01906269012112
:1009800001989047051E2DD0252D2CD0216A88472F
:10099000C0B16269012101989047216A8847002807
:1009A000F7D1411E62690198904700E0761CA16969
:1009B0000B988847216A88470028F7D1E1690B988E
:1009C0008847DBE7A1690B9888470746A84201D111
:1009D000761CD3E7E1690B9888477F1C02D1B8F1F8
:1009E000000F6FD046E1002762693D463946019805
:1009F00090472A2804D16269012101989047012576
:100A0000DFF884926269012101989047A0F13001DA
:100A10000A290AD24F45E5DC07EB870100EB4107C5
:100A2000303FDFD445F01005ECE7E90601D46FF064
:100A300000476C280AD04C2814D0682815D06A28A2
:100A40000DD074281CD07A281AD01DE062690121CB
:100A5000019890476C2802D045F0040514E045F059
:100A600002050DE045F020050AE0626901210198C8
:100A70009047682802D045F0080505E045F4006578
:100A80006269012101989047C4E9015765283DD06A
:100A900019DC58287AD00CDC452837D004DC25280E
:100AA00026D0412831D131E046282FD047282CD1FB
:100AB0002CE05B2877D0612828D063287CD064287C
:100AC00023D15AE0D0E06F2848D008DC66281DD03A
:100AD00067281BD0692821D06E2816D127E07028FE
:100AE00045D0732868D0752847D078280DD14DE0BF
:100AF000A1690B988847054625283FF469AFE1694D
:100B00000B9888476D1C3FF46AAFB3E023466A46F2
:100B10006FF001000B99AFF300809EE045F04000BC
:100B20006060A80723464FF0000236D43EE0E80795
:100B30007FF447AF2068011D21600068290501D5B9
:100B400006701BE7290701D5068017E7A90703D51B
:100B5000F117C0E9006111E706600FE745F04000BA
:100B60006060A80723464FF0080216D41EE040F646
:100B70000E0125EA0100606016E045F0400060606B
:100B8000A80723464FF00A0207D40FE045F04000C3
:100B90006060A80708D5234610226FF001000B996A
:100BA000AFF3008059E007E0234610226FF0010008
:100BB0000B99FFF735FB50E04FF000094F464B46CD
:100BC000632802D05B2806D040E0E80601D401206B
:100BD000A06001273AE062690121019890475E28F0
:100BE00005D14FF001096269494601989047216992
:100BF00039B900210A46534643F82120491C0829E7
:100C0000FADBB0B3216969B9C11700EBD1625311A6
:100C10000AEB830122F01F02821A01200B68904028
:100C200003430B6062690121019890475D28E8D178
:100C3000B9F1000F09D00020514651F82020D243CD
:100C400041F82020401C0828F7DB02AB2246009721
:100C50006FF001000B99FFF789FB00280CDA401CAC
:100C600008D1BBF1000F05D04FF0FF300DB0BDE84B
:100C7000F08FFFE74046F9E7E90701D108F10108E5
:100C800006444FF0000B79E6CCCCCC0C10B5141E0A
:100C900073F1000408DA401C41F1000192185B4135
:100CA0001A4301D120F0010010BD2DE9F04D92460C
:100CB0009B4611B1B1FA81F202E0B0FA80F2203223
:100CC0009046FFF717FE04460F4640EA0A0041EA45
:100CD0000B0153465A46084313D0114653EA01000C
:100CE00019D0C8F140025046FFF713FE05460E46E4
:100CF000504659464246FFF7FDFD084305D0012006
:100D000004E020463946BDE8F08D0020054346EA60
:100D1000E0762C4337430A986305E40AA0EB080009
:100D20000022FD0A44EA47540A3002D50020014659
:100D3000E9E7010510196941DDE908450019694134
:100D4000BDE8F04DA2E700007F2801D9002208E0AD
:100D5000064A02EB5002C007127800D1120902F0D5
:100D60000F0201209040084070470000DC35000869
:100D7000FEE770470E484FF47A710068B0FBF1F05F
:100D8000B0F1807F01D301200DE020F07F414FF0D2
:100D9000E020491E4161074AF02111700021816164
:100DA000072101610020002800D0FEE77047000005
:100DB0000000002023ED00E003490A680B689B1A3D
:100DC0008342FBD3704700003000002010B508209C
:100DD00000F042F8002813D002F044FA09494A68AA
:100DE000821A142A07D948600120087000F0B2F86E
:100DF00005A000F0FFFEBDE81040082000F026B876
:100E000010BD0000280000204B657931207072650C
:100E100073736564210D0A0010B5102000F01CF8F2
:100E200000280CD002F01EFA05494A68821A142ADA
:100E300000D94860BDE81040102000F007B810BD90
:100E4000280000204FF4807000F006B801490860C7
:100E5000704700001404014001460020054A126852
:100E60000A40044B14331B680B4202D0002A00D006
:100E7000012070470004014004490A6822F0100272
:100E80000A600A6802430A607047000000200240BE
:100E9000034A116801F038010143116070470000F6
:100EA000002002402DE9F0410022CC7804F00F032D
:100EB000E40601D58C7823430C784FF00F0714F02B
:100EC000FF0F4FF0010C1CD005680CFA02F40E88DD
:100ED0002640A64211D1960007FA06F825EA080531
:100EE00003FA06F848EA0505CE78282E02D0482EE7
:100EF00002D002E0446100E00461521C082AE4D3FD
:100F000005600A88FF2A1ED94568002202F10806FA
:100F10000CFA06F40E882640A64210D1960007FA75
:100F200006F825EA080503FA06F848EA0505CE782A
:100F3000282E00D14461CE78482E00D10461521C85
:100F4000082AE3D34560BDE8F08141617047016143
:100F50007047FEE70248016881F020010160704798
:100F60000C0C014038B50121402000F097F8012118
:100F7000082000F093F82024ADF8004010208DF8F0
:100F8000030001208DF802000A4D69462846FFF74C
:100F900089FFADF80040084C69462046FFF782FF04
:100FA00020212046FFF7D3FF20212846FFF7CFFF5F
:100FB00038BD000000180140000C0140FEE77047FA
:100FC00070B50F23C27801260178002A1ED0144A7A
:100FD000126802F4E062C2F5E062120AC2F104048F
:100FE000D3404578A54082781A402A43120101F186
:100FF000E02181F80024007800F01F018E404009B4
:10100000800000F1E020C0F8006170BD01F01F0019
:1010100086404809800000F1E020C0F8806170BD82
:101020000CED00E0024908430249086070470000E7
:101030000000FA050CED00E008B54FF4A060FFF7E2
:10104000F1FF27208DF8000000208DF8010001201D
:101050008DF802008DF803006846FFF7B1FF08BD68
:1010600070470000054A002903D0D1690143D161CE
:101070007047D1698143D161704700000010024080
:10108000054A002903D011690143116170471169B4
:10109000814311617047000000100240054A002999
:1010A00003D09169014391617047916981439161D6
:1010B0007047000000100240054A002903D0D168A3
:1010C0000143D1607047D1688143D160704700000F
:1010D0000010024070B5054600F042F84FF480342D
:1010E000204600F0D5F800F023F901280ED00020AA
:1010F00000F014F9002000F0C1F8002000F0EAF838
:10110000002000F0F1F800F067FBFEE71020FFF789
:10111000B3FE0220FFF7BCFE2946204600F0F4F89B
:10112000012000F0EBF8392000F090F80028FAD008
:10113000002000F0A3F84FF4806000F0CBF800200E
:1011400000F0D2F8022000F0E9F800F045FB0020A2
:1011500000F0BAF8BDE8704001214020FFF79EBFC3
:101160000C48016841F00101016041680A4A1140E0
:1011700041600168094A11400160016821F4802141
:101180000160416821F4FE0141604FF41F0181605C
:1011900070470000001002400000FFF8FFFFF6FE5D
:1011A00010B5264A516801F00C01254B002927D0C3
:1011B000042927D0082927D00360516801F0F001E5
:1011C0000909204B5C5C0168E1404160546804F40B
:1011D000E064240A1C5D21FA04F48460546804F479
:1011E0006054E40A1B5DD940C160526802F4404279
:1011F000920B144B1B1F9A5CB1FBF2F1016110BD05
:101200000360DAE70360D8E7516801F470115368AE
:1012100003F48033022404EB914133B153689B0300
:1012200007D5094B59430160C7E7074B5943016094
:10123000C3E7034B59430160BFE7000000100240C1
:1012400000127A001800002000093D00034600202B
:101250005909094A01290AD002290AD0516A03F022
:101260001F02012393400B4200D0012070471168F8
:10127000F5E7116AF3E7000000100240034A5168E5
:1012800021F0F0010143516070470000001002405E
:101290000C490A6822F480320A600A6822F480222B
:1012A0000A60B0F5803F07D0B0F5802F03D1086801
:1012B00040F4A02008607047086840F4803008605F
:1012C00070470000001002400149086070470000AC
:1012D00000004242034A516821F4E0610143516039
:1012E0007047000000100240034A516821F4605129
:1012F00041EAC00050607047001002400149086692
:101300007047000000004242034B5A6822F47C12EE
:10131000084310435860704700100240034A516868
:1013200021F00301014351607047000000100240AA
:1013300018B5002000904FF4A0643120FFF786FF1D
:101340000099491C00910099A14201D00028F4D0D5
:101350003120FFF77BFF08B1012018BD002018BD28
:101360002DE9F04104460D461646DFF84C804FF457
:10137000805739464046FFF7E8FD032000F04AF861
:10138000C4F3074000F046F8C4F3072000F042F829
:10139000E0B200F03FF8002404E0FF2000F03AF84B
:1013A0002855641CB442F8D339464046FFF7CFFDB8
:1013B0000020BDE8F0810000000C01402DE9F84359
:1013C0000020009000F0D2F8DFF840804FF4805702
:1013D00039464046FFF7B9FD9F2000F01BF8FF207B
:1013E00000F016F8C4B2FF2000F012F8C5B2FF20DA
:1013F00000F00EF8C6B239464046FFF7A8FD2004BB
:1014000040EA05203043BDE8F8830000000C0140AD
:10141000AFF30080F8B506464FF47A7000904FF0B5
:10142000FF34124D05E00098421E009201D2204682
:10143000F8BD0221284600F045F90028F3D03146D6
:10144000284600F048F905E00098411E009101D2BD
:101450002046F8BD0121284600F034F90028F3D0D9
:101460002846BDE8F84000F034B9000000380040DC
:101470002DE9F04104460D46164600F063F8DFF80A
:1014800048804FF4805739464046FFF75EFD022002
:10149000FFF7C0FFC4F30740FFF7BCFFC4F307200A
:1014A000FFF7B8FFE0B2FFF7B5FF002403E0285DC7
:1014B000FFF7B0FF641CB442F9D339464046BDE89B
:1014C000F041FFF744BD0000000C01402DE9F0475A
:1014D0000546884617464FF48059DFF864A02BE094
:1014E000E8B2C0F58076B74200D23E4600F02AF856
:1014F00049465046FFF729FD0220FFF78BFFC5F351
:101500000740FFF787FFC5F30720FFF783FFE8B227
:10151000FFF780FF002404E018F80400FFF77AFFCB
:10152000641CB442F8D349465046FFF710FD00F062
:10153000B1F83544B044BF1B002FD1D1BDE8F087CE
:10154000000C014070B5084D4FF4805421462846E8
:10155000FFF7FBFC0620FFF75DFF21462846BDE8AC
:101560007040FFF7F4BC0000000C0140F0B587B0FC
:1015700001218D032846FFF775FD01210820FFF7A3
:101580008DFD6810ADF8180018268DF81B60032437
:101590008DF81A40264F06A93846FFF783FCADF8B0
:1015A000185004208DF81B008DF81A4006A9384603
:1015B000FFF778FC6800ADF818008DF81B608DF817
:1015C0001A4006A93846FFF76DFCAD10ADF818506B
:1015D00010208DF81B008DF81A4006A93846FFF739
:1015E00061FC0020ADF804004FF48271ADF80610E4
:1015F000ADF808000221ADF80A100121ADF80C1079
:101600004902ADF80E10ADF81000ADF81200ADF8BB
:101610001400084C01A9204600F05FF80121204683
:1016200000F00AF829463846FFF791FC07B0F0BDF4
:10163000000C014000380040002904D0018841F02E
:10164000400101807047018821F04001018070470E
:1016500070B504460E4E4FF4805529463046FFF7CC
:1016600074FC2020FFF7D6FEC4F30740FFF7D2FE3C
:10167000C4F30720FFF7CEFEE0B2FFF7CBFE29460A
:101680003046FFF764FCBDE8704000F003B800008E
:10169000000C014070B50A4D4FF480542146284695
:1016A000FFF753FC0520FFF7B5FEFF20FFF7B0FE64
:1016B000C007FAD121462846BDE87040FFF747BC75
:1016C000000C01400246002012890A4200D001208D
:1016D0007047808970478181704730B5028802F475
:1016E00041530A884C88CD8822438C882C4322435E
:1016F0000C8922434C8922438C892243CC89224382
:101700001A430280828B22F400628283098A01825A
:1017100030BD7047AFF300800CB5002201920092FB
:101720002748016841F4803101604FF4A0630168EB
:1017300001F4003100910199491C0191009911B9FE
:1017400001999942F3D10168890302D501210091E1
:1017500000E000920099012930D11A490A6842F04C
:1017600010020A600A6822F003020A600A6842F066
:1017700002020A604168416041684160416841F489
:1017800080614160416821F47C114160416841F40D
:10179000E8114160016841F08071016001688901D0
:1017A000FCD5416821F003014160416841F002012C
:1017B00041604168C1F381010229FAD10CBD0000EA
:1017C000001002400020024002480168491C0160EC
:1017D000704700003000002010B51A4A506800F031
:1017E0000C01194B194800290ED004290ED00829E4
:1017F0000ED003605168154AC1F30311121D515CEC
:101800000268CA40026010BD0360F3E70360F1E7BD
:10181000516801F47011536803F48033022404EB1F
:10182000914133B153689B0307D5094B594301607C
:10183000E0E7074B59430160DCE7034B5943016084
:10184000D8E700000010024000127A0000000020DB
:1018500000093D0010B50F48016841F00101016029
:1018600041680D4A1140416001680C4A1140016015
:10187000016821F480210160416821F4FE0141608A
:101880004FF41F018160FFF745FF05494FF00060ED
:10189000086010BD001002400000FFF8FFFFF6FED8
:1018A00008ED00E070B50F4C40F225552946204662
:1018B00000F0D3F8002813D0204600F067F9064660
:1018C0008021204600F0C2F80028F9D03146204699
:1018D00000F06FF929462046BDE8704000F050B88E
:1018E00070BD00000048004010B586B0012188049A
:1018F000FFF7B8FB01210820FFF7D0FB4FF4806011
:10190000ADF8140018208DF8170003208DF816008C
:10191000194C05A92046FFF7C5FAE114ADF81410DB
:1019200004218DF8171005A92046FFF7BBFA134CC8
:10193000204600F039F84FF4E13101910021ADF873
:101940000810ADF80A10ADF80C100C22ADF80E20FE
:10195000ADF8101001A9204600F0BAF8FFF76CFBB3
:101960000121204600F014F8012240F225512046C2
:1019700000F093F806B010BD000C01400048004094
:1019800040F66A120A0A01219140C943018070475A
:10199000002904D0818941F40051818170478189F7
:1019A00021F400518181704710B5234988420AD142
:1019B00001218C032046FFF77FFB2046BDE8104045
:1019C0000021FFF779BB1D4988420AD101214C044F
:1019D0002046FFF755FB2046BDE810400021FFF7E9
:1019E0004FBB174988420AD101218C042046FFF7DA
:1019F00047FB2046BDE810400021FFF741BB1149DD
:101A000088420AD10121CC042046FFF739FB204649
:101A1000BDE810400021FFF733BB0B4988420AD1D3
:101A200001210C052046FFF72BFB2046BDE81040A6
:101A30000021FFF725BB10BD0038014000440040E5
:101A400000480040004C004000500040024600208A
:101A500012880A4200D00120704770B5002440F679
:101A60006A12C1F3421301F01F05012606FA05F2BE
:101A7000012B0CD0022B0DD0838A1340090A8E4013
:101A8000008830400BB100B10124204670BD83892D
:101A90001340F3E7038A1340F0E710B540F66A13EA
:101AA000C1F3421301F01F040121A140012B07D013
:101AB000022B07D014303AB102680A43026010BD0D
:101AC0000C30F8E71030F6E702688A43026010BD78
:101AD00030B585B004460D46208A4CF6FF710840AB
:101AE000E98801432182A0894EF6F3110840A988B4
:101AF0002A8911436A8902431143A181A08A4FF6C2
:101B0000FF410840A9890143A1826846FFF748FBCD
:101B10001D48844201D1039800E00298A18909047C
:101B200008D500EBC00101EB001029684900B0FBAB
:101B3000F1F007E000EBC00101EB0010296889001B
:101B4000B0FBF1F06422B0FBF2F109010B096FF078
:101B500018056B4300EB8300A3891D044FF032038B
:101B600007D503EBC000B0FBF2F000F0070008431C
:101B700006E003EB0010B0FBF2F000F00F000843AA
:101B8000208105B030BD0000003801408088C0F3DE
:101B90000800704770B504460D4680212046FFF7C7
:101BA00055FF0028F9D029462046BDE87040AFF324
:101BB0000080C1F308018180704770B505460C466E
:101BC0000AE080212846FFF741FF0028F9D021785C
:101BD0002846FFF7DFFF641C20780028F1D10D2193
:101BE0002846FFF7D7FF2846BDE870400A21FFF7D7
:101BF000D1BFFEE70FB4054B10B503A9044A029804
:101C000000F0DAF810BC5DF814FB00007D2E00082F
:101C10003C00002002E008C8121F08C1002AFAD1C7
:101C200070477047002001E001C1121F002AFBD15C
:101C3000704700002DE9FF5F82B00021DDE904302C
:101C4000020DDDF840B0034318D044F61050A2F264
:101C5000FF3242431514119801281FD0A5EB0B0049
:101C6000401C5FEA000A4FF000064E4FDFF8389143
:101C7000B046504615D5CAF1000413E0119801246E
:101C80004AA3012801D16FEA0B010298119AC0E919
:101C90000031C0E9024206B0BDE8F09FCBF1000080
:101CA000DFE704460021404A491842EB0450CDE9E1
:101CB000001012E0E00707D032463B464046494656
:101CC000FEF7F5FC8046894632463B4610461946EB
:101CD000FEF7EDFC06460F466410002CEAD1DDE964
:101CE0000401DDE90023BAF1000F06DAFEF7DFFC9C
:101CF00042464B46FEF7DBFC05E0FEF74AFD424656
:101D00004B46FEF746FD04460E460022284BFEF7E2
:101D1000C7FD03D84FF0FF30014607E00022254BF6
:101D200020463146FEF71CFCFEF7A2FD102409E018
:101D3000002C0ADB0A220023FEF79EFB039B3032B5
:101D40001A55641E50EA0102F2D1641C039AC4F1D0
:101D500011031444119A012A03D0012208430DD122
:101D60000AE0084304D000204FF0110B119072E7F5
:101D7000A3EB0B056D1E0DE05B4504DD4FF000028B
:101D800005F1010504E003DA4FF00002A5F10105B9
:101D9000002AECD002981199C0E90231C0E900454F
:101DA00079E70000000014400000F03F3000000020
:101DB0000000F0430000E03F2DE9FF4F95B09B4647
:101DC0008946064600250FE2252877D100242746BC
:101DD000F84A0121059400E0044316F8013F203B36
:101DE00001FA03F01042F7D130782A2811D06FF0B1
:101DF0002F033078A0F13002092A16D8059A44F052
:101E0000020402EB820203EB42021044761C0590AE
:101E1000EFE759F8042B0592002A03DA504244F404
:101E20000054059044F00204761C30782E2816D118
:101E300016F8010F44F004042A280DD06FF02F0289
:101E40003078A0F13003092B09D807EB870302EBA8
:101E50004303C718761CF3E759F8047B761C3078E7
:101E60006C280FD006DC4C2817D068280DD06A28C3
:101E700014D104E0742810D07A280FD10DE044F476
:101E800000140AE044F4801401E044F44014727831
:101E9000824202D104F58014761C761C30786628C4
:101EA0000BD013DC582877D009DC002875D04528E2
:101EB000F6D04628F4D047281AD19DE118E06328CF
:101EC00035D0642879D0652812D195E1702873D077
:101ED00008DC6728F1D069286FD06E280DD06F28F4
:101EE00006D1B5E073282CD0752875D0782874D029
:101EF0005A46179990476D1C75E1C4F302500228A9
:101F000009D003280DD0D9F8001004280DD00D6099
:101F100009F1040967E1D9F80010EA17C1E9005294
:101F2000F6E7D9F800100D80F2E70D70F0E719F828
:101F3000041B8DF8001000208DF80100EA460120F6
:101F400003E059F804AB4FF0FF3061074FF0000198
:101F500002D40DE008F101018846B9420FDA80454C
:101F6000F8DB1AF808100029F4D108E008F10101A3
:101F700088468142FADB1AF808100029F6D1059844
:101F80005B46A0EB080721463846179A00F094FA02
:101F9000284400EB080507E04DE029E10DE01AF8C0
:101FA000010B5A4617999047B8F10108F7D25B46E2
:101FB00021463846179A13E142E00A220092C4F300
:101FC00002524FF0000A022A08D059F804CB032A23
:101FD0004FEAEC710AD00DE029E02AE009F107018F
:101FE00021F00702F2E802C1914609E00FFA8CFCE9
:101FF0004FEAEC71042A03D14FFA8CFC4FEAEC71E2
:10200000002907DA0A460021DCF1000C61EB02012D
:102010002D2202E0220504D52B228DF80420012276
:1020200003E0E20701D02022F7E7904659E00A21B9
:1020300002E010220DE010214FF0000A00910BE0A9
:1020400010224FF0000A44F004040827009203E035
:1020500008224FF0000A0092C4F30252022A05D06F
:1020600059F804CB0021032A08D009E009F107013F
:1020700021F00702F2E802C1914605E01FFA8CFC4C
:10208000042A01D10CF0FF0C4FF00008220728D5DC
:10209000702806D0009B83F0100353EA0A0305D092
:1020A0000EE040228DF80420012208E05CEA0102E3
:1020B00006D030228DF804208DF8050002229046CB
:1020C000009B83F0080353EA0A030AD15CEA010289
:1020D00001D1620705D530228DF804204FF00108A8
:1020E0007F1E582804D034A003900EA802900DE063
:1020F00036A0F9E753466046009AFEF7BDF98446DC
:102100000398825C0298401E029002705CEA010013
:10211000F0D1029806A9081A00F1200A600702D53A
:1021200024F4803400E00127574502DDA7EB0A00C4
:1021300000E0002000EB0A01009005984144401A9D
:102140000590E00306D45B462146179A059800F0F7
:10215000B3F90544002706E001A85A46C05D179967
:1021600090476D1C7F1C4745F6DBE0030CD55B46B2
:102170002146179A059800F09FF9054404E03020A5
:102180005A46179990476D1C0099481E00900029E7
:10219000F5DC08E0029802995A460078491C029141
:1021A000179990476D1CBAF10001AAF1010AF1DC00
:1021B00065E100000928010030313233343536370B
:1021C0003839616263646566000000003031323383
:1021D0003435363738394142434445460000000023
:1021E00000F058F90544761C307800287FF4ECADF7
:1021F00019B02846BDE8F08F620700D4062709F120
:10220000070222F0070CFCE80223E14603F0004835
:102210005FEA080C02D00FF2702C0DE05FEA045C5C
:1022200002D50FF2682C07E05FEAC47C02D00FF2FF
:10223000602C01E0AFF2700C4FF0FF3823F0004348
:10224000CDF850C065280CD006DC452809D04628BA
:102250001DD047283DD13DE0662818D067287ED1A3
:1022600038E00021112F01DB112000E0781CCDE9BE
:10227000000106A90EA8FFF7DDFCDDE90F010E9AAB
:1022800003910021009207F1010A04914DE04FF003
:1022900000400097CDE9011006A90EA8FFF7CAFC7F
:1022A000DDE90F0203920E9B11990022DDF80CA0CC
:1022B0000093049211B9791C00EB010AB7EB0A00F4
:1022C00004D4C0F1FF3007F1010A0490AAEB070023
:1022D000019044E0012F00DA01270021112F01DDD8
:1022E000112000E03846CDE9000106A90EA8FFF74D
:1022F000A1FCDDE90F010E9A0391002104910092E7
:10230000BA4621070CD40399514500DA8A46BAF13E
:10231000010F05DD009AAAF10101515C302908D0B6
:10232000B84202DA10F1040F06DA0121CDE90110FA
:1023300015E0AAF10101E9E7002805DC0499014450
:102340000491AAEB000102E0411C514500DD8A46E0
:102350000499401A401C01904FF000400290200761
:1023600004D40198504501DBCDF8048000208DF89D
:102370004F0002980DF14F07B0F1004F25D02B20F0
:102380000E9002984FF0020800280CDA40420290AA
:102390002D200E9007E00A210298FEF757F8303101
:1023A000029007F8011DB8F10001A8F10108F2DC64
:1023B00002980028EFD1791E0E980870307800F04E
:1023C000200040F0450007F8020D12A8C01B00F1E4
:1023D00007081498007800B1012000EB0A01019869
:1023E00001EBE07105984144401A401E0590E0035E
:1023F00006D45B462146179A059800F05DF805441F
:102400001498007818B15A46179990476D1CE0034C
:1024100024D55B462146179A059800F04DF80544EF
:102420001CE00498002807DBDDE90301884203DD96
:102430000098405C179901E0179930205A46904760
:10244000049805F10105401C04900198401E01907C
:1024500004D12E205A46179990476D1CBAF10001FD
:10246000AAF1010ADDDC05E017F8010B5A461799BD
:1024700090476D1CB8F10001A8F10108F4DC5B463F
:102480002146179A0598ABE62D0000002B000000AE
:10249000200000002DE9F041044600251E461746A5
:1024A000880404D405E039462020B0476D1C641E22
:1024B000F9D52846BDE8F0812DE9F0410446002514
:1024C0001E469046C80301D5302700E02027880427
:1024D00004D505E041463846B0476D1C641EF9D569
:1024E0002846BDE8F081000070B504460020207148
:1024F000401E2063204600F0F9FF08B1042070BDA3
:1025000004F2322000F052FD054694F834004AF6F9
:102510005526EB2803D0E92801D0E82841D1B5425F
:1025200006D1082222A104F18600FDF741FEA8B3DE
:1025300004F13F0000F03AFD94F84110421E1042B1
:102540002FD1B0F5007F2CD3B0F5805F29D841B3EF
:10255000481E014225D104F1420000F027FD00B3DE
:1025600094F84400401E01281BD804F1450000F0F7
:102570001DFDB0B104F1470000F018FD802806D21F
:1025800004F1540000F007FDB0F5803F09D304F1D9
:102590004A0000F00BFD20B1002070BDFFE70020D5
:1025A000FBE7B54201D10220F7E70320F5E7000081
:1025B0004641543332202020000000002DE9FF4F17
:1025C00081B09B466A460121019800F09AF818B143
:1025D000012005B0BDE8F08FDDF800904FF03F0816
:1025E0000826F10101E07006060E2EB106FB08F088
:1025F000B9FBF0F08842F6D806B9FF264FF48051B7
:102600005846FDF7CAFD0BF5DF744FF0000A45464A
:1026100057E0029850F82A70642F08D801D14F462D
:1026200005E04FF06400B9FBF0F007FB00F705EBA5
:102630000700484501D8A84201D2A9EB0507E7B336
:10264000294604F1080000F06BFF394604F10C0044
:1026500000F066FF0398207108FB06F00246B5FB08
:10266000F0F0B5FBF8F1B1FBF6F306FB1311B5FB87
:10267000F8F308FB13535B1C6170C02101EA900C56
:102680004CEA030C84F802C0E0703D442B466D1EFA
:10269000B5FBF2F0B5FBF8F2B2FBF6F706FB172735
:1026A000B5FBF8F208FB1252521C677101EA900167
:1026B0001143A171E071103400E008E00AF1010A51
:1026C0001D46BAF1040F02D20DB14D45A1D34AF611
:1026D00055210BF5FF7000F02BFF01230022594616
:1026E000019800F04FF808B1012072E7002070E770
:1026F00010B5002801D0012010BDFEF737FF0020E3
:1027000010BD002801D00420704739B1012910D034
:10271000022905D0032908D0042070470020704703
:102720004FF40070108000207047082010600020D7
:1027300070474FF400401060002070472DE9F041D1
:102740000E461F46002805D127B1550200244FF43C
:1027500000780CE00420BDE8F0814246314628466E
:10276000FEF7FEFD05F5007506F50076641CBC421B
:10277000F3D30020EFE7002801D0012070470020AC
:10278000704700002DE9F0410E461F46002805D194
:1027900027B1550200244FF400781AE00420BDE868
:1027A000F081FEF7CFFE2846FEF752FF6420FEF7C9
:1027B00003FB294609A0FFF71DFAFEF7C3FE4246B8
:1027C00031462846FEF782FE05F5007506F50076CF
:1027D000641CBC42E5D30020E1E700004572617350
:1027E000696E6720736563746F722061742030783E
:1027F000253038582E2E2E0A000000002DE9FF4FFC
:102800008FB00C46154698460FA800F0A1FB002893
:1028100003DA0B2013B0BDE8F08FFA49002651F817
:10282000201001B10E70C0B20D900D98FFF760FF3F
:10283000C10701D00320EDE7400701D50A20E9E7F1
:1028400004B9F14C60680B9020B90BAA03210D98D4
:10285000FFF757FF0B984FF4004720B1B84202D85A
:10286000411E084201D001200B900CAA02210D98B4
:10287000FFF747FF08B10120CCE7BDF83000A0F515
:102880000071B1F5606F02D8411E084201D00120ED
:10289000C0E7217801F00F010E9161784A1E012AEC
:1028A00000D901210391A1684A1EBA4205D242090A
:1028B000B1FBF2F302FB13120AB14FF40071029163
:1028C000E168B1F1807F02D84A1E114200D0002198
:1028D000B1FBF0F7B8FBF0FBBBF1000F0BD065B11B
:1028E00000200890079008AA01210D98FFF709FF22
:1028F00028B101208EE711208CE711208AE70E987D
:10290000000706D408983F2803D93F2107913F3894
:1029100008900898802801D20E207BE7802F00D9EC
:1029200080270E98800702D50E98C0070FD00E980A
:10293000C0070ED0022600F0B3FA089908440990A7
:1029400040F6F5733C46032E05D064B33BE0032606
:10295000F1E713205EE77CB94FEA514800200124DB
:10296000DFF8A4C2ACF10E0C01E0401C64003CF89E
:1029700010200AB14245F8D9B1FBF4F0BDF830207F
:1029800002EB800C0CF1070CBCFBF2F94FF02008B5
:10299000002204924FF6F572904202D99B4A90426F
:1029A0002DD90E2036E74FEA113800200124DFF838
:1029B00058C2ACF11C0C01E0401C64003CF8102033
:1029C0000AB14245F8D9B1FBF4F0984203D9042288
:1029D00002EB400206E0012600EB4000401C03220F
:1029E00002EB5002BDF830000244521EB2FBF0F977
:1029F0004FF00108029A5201B2FBF0F004900798E0
:102A000000EB080A04980AEB0002039809FB002275
:102A10000B9802EB000CACF1010C401E2CEA000CF0
:102A2000ACEB0200032E1AD0DDF80CC0B0FBFCFEAC
:102A30000CFB1E0CBCF1000F04D0401E08F1010875
:102A40000AF1010ADDF80CC0B0FBFCF081440798E4
:102A500002EB0412101A884204D90E20DAE68044F0
:102A60008244F4E70398A1EB080209FB10220498C2
:102A7000101AB0FBF4F00A90032E0AD10A984FF610
:102A8000F572904205D817B967087FF45BAF0E2046
:102A9000C0E6022E1FD10A984FF6F572904211D966
:102AA0002FB94020B0EB440F01D367004AE70E98DE
:102AB000800701D5032645E717B96700802FF5D9B0
:102AC0000E20A7E60A98984205D817B96700802F0C
:102AD000ECD90E209EE6012E04D10A98984201D925
:102AE0000E2097E6BDF830102846FDF756FB48A0AB
:102AF0000168296041686960008928813020A872D6
:102B0000BDF8301005F10B0000F012FD6C731FFAD8
:102B100088F105F10E0000F00BFD03982874032ED8
:102B20000FD0029881B205F1110000F001FD089963
:102B3000B1F5803F07D289B205F1130000F0F8FC2F
:102B400005E00020EEE705F1200000F0E9FCF820A8
:102B500068753F2105F1180000F0EAFCFF2105F13E
:102B60001A0000F0E5FC05F11C00079900F0D8FC04
:102B700080274FF02908032E25D005F12700099959
:102B800000F0CEFC1FFA89F105F1160000F0D0FC30
:102B900085F8247085F82680132220A105F12B00EA
:102BA000FDF7E2FA4AF6552705F5FF7039468046EB
:102BB00000F0BEFC01232946079A0D98FFF7E2FDBD
:102BC000B0B3012026E605F14300099900F0A8FC06
:102BD000494605F1240000F0A3FC022105F12C0078
:102BE00000F09EFC012105F1300000F0A1FC06215F
:102BF00005F1320000F09CFC85F8407085F84280B9
:102C0000132216E038000020CC350008F5FFFF0F36
:102C1000EBFE904D53444F53352E30004E4F204E17
:102C2000414D4520202020464154202020202000D6
:102C300005E05EA105F14700FDF796FAB2E7032E25
:102C400031D1079A0123921D29460D98FFF79AFD6D
:102C5000BDF830102846FDF7A0FA5949284600F083
:102C60005FFC584905F5F27000F05AFC0A9905F529
:102C7000F470491E00F054FC022105F5F67000F0D6
:102C80004FFC3946404600F053FC079A0123D21D01
:102C900029460D98FFF776FD079A0123521C294615
:102CA0000D98FFF76FFDBDF830000BFB00F12846D3
:102CB000FDF773FA0020019037E0032E0BD0012EB0
:102CC0001AD06FF00701284600F02AFC4F465F45F6
:102CD00014D9D84613E06FF00701284600F020FC15
:102CE0004FF0FF31281D00F01BFC6FF0704105F123
:102CF000080000F015FCE9E73349E4E7B84643462D
:102D0000524629460D98FFF73DFD08B1012081E5A7
:102D1000BDF830102846FDF740FAC244A7EB08077B
:102D2000002FD4D10198401C01900399019888424A
:102D3000C3D3032E00D0049C5C4501D95F4600E05C
:102D400027463B46524629460D98FFF71BFD08B122
:102D500001205FE5BA44E41B002CEDD1032E05D021
:102D60000898B0F5803F03D3062204E00C2202E06D
:102D7000022E16D001220E9800070AD4089805905A
:102D8000002006902B4605A90D98FFF717FC002898
:102D9000BDD1002211460D98FFF7B3FC18B10120F8
:102DA00038E50422E7E7002034E500004E4F204ECE
:102DB000414D452020202046415433322020200020
:102DC0005252614172724161F8FFFF0037B582B023
:102DD00015460398019001A800F0BAF8002802DA1D
:102DE0000B2005B030BD0B4B53F82010002411B15F
:102DF00043F820400C70029919B148700C7043F8E8
:102E000020102DB1002202A903A800F031FAE8E752
:102E10000020E6E7380000202DE9FF4106460D4678
:102E200000213046FFF760FB022803D0032821D29F
:102E3000002D1FD000246F4606EB041000F5FD7036
:102E400000F0A9F847F82400641C042CF4D30DB159
:102E50006C1E00E0002457F8241019B13046FFF72B
:102E600043FB00E00320002D04D1022802D3641CA0
:102E7000042CF0D304B0BDE8F081000070B5044626
:102E8000064D80212846FEF7E1FD0028F9D0E1B289
:102E90002846FEF78EFE204670BD00000048004028
:102EA00070B594B030221D4908A8FDF75DF91CA04B
:102EB0001EA4012606A9009105AB07AA1EA1FDF7D5
:102EC00093F902A8009003AB04AA1EA12046FDF7C7
:102ED0008BF9002408AD032255F8241007A8FDF74C
:102EE00074F9C0B1641C0C2CF5DB06980599A0F2AE
:102EF000BC70400640EA465040EA0140049940EA6E
:102F0000C120039940EA4110029914B001EBD1713C
:102F100040EA610070BD661CE7E7000080350008EC
:102F20004A756E20313220323032350031313A3339
:102F3000393A313000000000253373202564202504
:102F40006400000025643A25643A2564000000000E
:102F500030B5044621680A464FF0FF35002A01D1FA
:102F6000284630BD11F8010B212801D33A28F9D1A8
:102F70003A2801D0002030BD01201378303B092BC6
:102F800003D8921C8A4200D11846012801DB28464A
:102F900030BD216030BDC178827842EA012142789B
:102FA00042EA0121007840EA012070474178007828
:102FB00040EA0120704700002DE9FF414FF4E01086
:102FC000FEF788F8FDF7D6FEFDF7CCFFFEF78CFC88
:102FD00059A15E48FEF7F1FDFEF7C8FAFEF7EEF9DB
:102FE0005B49884206D1FEF7E9F9014659A0FEF790
:102FF00001FE02E05DA0FEF7FDFD4FF4FA60FDF773
:10300000DBFE00200090019002900390FEF79AFAF8
:103010000020FEF71DFB6420FDF7CEFE5CA0FEF74E
:10302000E9FDFEF78FFA634F4FF48056314638467C
:10303000FDF78BFF0320FEF7EDF90020FEF7E8F91E
:103040000020FEF7E5F90020FEF7E2F900246D46C6
:10305000FF20FEF7DDF9C1B2295557A0FEF7CAFDE2
:10306000641C032CF4DB49A0FEF7C4FD314638464E
:10307000FDF76DFF122252A10020FEF7F9F964203E
:10308000FDF79AFEFEF75EFA31463846FDF75DFF22
:103090000320FEF7BFF90020FEF7BAF90020FEF783
:1030A000B7F90020FEF7B4F90024FF20FEF7B0F9CD
:1030B0002855641C112CF8DB6A46112145A0FEF747
:1030C00099FD00244AA0295DFEF794FD641C112C93
:1030D000F8DB25A0FEF78EFD31463846FDF737FFB9
:1030E000012233A14348FFF771FE0446214642A066
:1030F000FEF780FD0D2C1ED141A0FEF77BFD4FF4A5
:103100000073474A00212AA0FFF778FB014631B13E
:1031100044A0FEF76FFD04B00020BDE8F08146A09A
:10312000FEF768FD012222A13248FFF74FFE01465B
:1031300047A0FEF75FFDFEE7555341525433204848
:1031400061766520456E61626C6500000048004054
:103150001840EF0053504920466C61736820494481
:103160003A203078253036580D0A00005350492057
:10317000466C61736820496E697469616C697A6133
:1031800074696F6E204661696C65640D0A00000009
:1031900045726173696E6720736563746F72203066
:1031A0002E2E2EE693A6E999A4E68890E58A9F0A3A
:1031B00000000000000C01402530325800000000E3
:1031C00048656C6C6F2C2053504920466C617368C5
:1031D0002100000053746174757320616674657218
:1031E0002077726974653A252E2A730D0A00000053
:1031F000256300004000002025640D0A0000000047
:103200004E6F2066696C6573797374656D2E204608
:103210006F726D617474696E672E2E2E0D0A000038
:1032200074100020466F726D6174206661696C6570
:10323000643A2025640D0A00466F726D6174207334
:1032400075636365737366756C210D0A0000000079
:103250004D6F756E7420726573756C743A202564B9
:103260000D0A00000148006870470000300000208F
:103270002DE9F0410D4616464FF00008C5F80080D4
:10328000FFF766FE002802DA0B20BDE8F0819249C4
:1032900051F8204094B12C6006F0FE05207820B152
:1032A0006078FFF768FAC1070AD084F80080607878
:1032B000FFF71EFAC1070AD00320E6E70C20E4E777
:1032C0001DB1400701D50A20DFE70020DDE71DB171
:1032D000400701D50A20D8E7607804F10C020221EA
:1032E000FFF70FFA08B10120CFE7A089A0F5007120
:1032F000B1F5606F02D8411E084201D00120C4E739
:1033000000212046FFF788FD042803D0022803D3BC
:103310000D20BAE70120B8E7266B04F13F00FFF764
:1033200045FEA189884201D00D20AEE704F14A0094
:10333000FFF73CFE18B904F15800FFF72CFEE061DE
:1033400094F84470E770012F03D0022F01D00D20B4
:103350009BE7474394F84100608110B1411E084249
:1033600001D00D2091E704F14500FFF71FFE2081F9
:10337000A1894909B0FBF1F201FB120008B10D204F
:1033800083E704F14700FFF711FE0546280004D14A
:1033900004F15400FFF7FFFD054604F14200FFF77A
:1033A00005FE014651B1A08923894009B3FBF0F025
:1033B000CA190244954203D20D2066E70D2064E746
:1033C000A81A6589B0FBF5F070B30025DFF80CC1D1
:1033D000604500D803254FF6F57C604500D80225EE
:1033E00040F6F57C604500D80125FDB1801CA06148
:1033F0002662314461623244E262032D18D053B335
:103400003944A162022D28D000F0010100EB4000F8
:1034100001EB5000A189401E0844B0FBF1F0E169C6
:1034200088421CD90D2030E70D202EE70D202CE717
:1034300004F15E00FFF7BAFD08B10D2025E72089F1
:1034400008B10D2021E704F16000FFF7A4FDA062A0
:10345000A0698000DEE70D2017E74000DAE74FF0B3
:10346000FF306061206180206071032D2BD104F159
:103470006400FFF79BFD012825D1711C204600F058
:1034800035F800BB84F8058004F13400FFF783FDB4
:103490001349884217D104F50670FFF77CFD1149E6
:1034A000884210D104F22620FFF775FD0E498842AC
:1034B00009D104F50770FFF76EFD606104F508702F
:1034C000FFF769FD206125700349091F0888401C2A
:1034D0000880E0800020D8E638000020F5FFFF0FCC
:1034E0005252614172724161000055AA70B50446A2
:1034F0000E460025206BB04210D0204600F01CF88C
:1035000005465DB960780123324604F13401FFF7C6
:1035100015F910B14FF0FF3601252663284670BD1E
:103520000170090A4170090A8170090AC170704767
:103530000170090A4170704770B504460025207972
:10354000002809D004F13401607801230E46226B73
:10355000FFF718F910B10125284670BD0020207131
:10356000616A206B421AE1698A42F5D2E278022A46
:10357000F2D14218607801233146FFF703F9EBE7F7
:103580002C3600081C360008383600083C36000887
:10359000483600083036000828360008243600086F
:1035A000343600084036000844360008203600084B
:1035B00001000400100040000001000200000100B2
:1035C00002000400080010002000000007000000B6
:1035D000000000000000000000000000DDDDDDDD77
:1035E000DCBBBBDDDDDDDDDDDDDDDDDD9888888894
:1035F000888888887777777777888888855555563B
:103600006666666666666666666888888333333291
:1036100022222222222222222228888D466562002E
:1036200044656300417567004A756C004A616E002D
:103630004A756E00536570004D61720041707200F2
:103640004F6374004E6F76004D6179006C36000850
:103650000000002040000000141C0008AC360008E8
:103660004000002038160000241C000800A24A0474
:103670000000000000000000010203040607080922
:103680000204060800000000010203040102030412
:10369000060708090000000000000000000000000C
:0C36A0000000000000000000000000001E
:0400000508000131BD
:00000001FF
