:020000040800F2
:1000000018040020450100084D0100084F010008B8
:1000100051010008530100085501000800000000CC
:100020000000000000000000000000005701000870
:1000300059010008000000005B010008DD02000813
:100040005F0100085F0100085F0100085F01000810
:100050005F0100085F0100085F0100085F01000800
:100060005F0100085F0100085F0100085F010008F0
:100070005F0100085F0100085F0100085F010008E0
:100080005F0100085F0100085F0100085F010008D0
:100090005F0100085F0100085F0100085F010008C0
:1000A0005F0100085F0100085F0100085F010008B0
:1000B0005F0100085F0100085F0100085F010008A0
:1000C0005F0100085F0100085F0100085F01000890
:1000D0005F0100085F0100085F0100085F01000880
:1000E0005F0100085F0100085F0100085F01000870
:1000F0005F0100085F0100085F0100085F01000860
:100100005F0100085F0100085F0100085F0100084F
:100110005F0100085F0100085F0100085F0100083F
:100120005F0100085F0100085F0100085F0100082F
:10013000DFF80CD000F018F8004800476B03000807
:10014000180400200648804706480047FEE7FEE7FF
:10015000FEE7FEE7FEE7FEE7FEE7FEE7FEE7FEE777
:10016000ED02000831010008064C074D06E0E0688A
:1001700040F0010394E8070098471034AC42F6D3EE
:10018000FFF7DAFF740300089403000830B516483F
:1001900000684FF47A72B0FBF2F1B1F1807F01D3C5
:1001A00001201DE021F07F40401E4FF0E022506111
:1001B00050170F22002807DA13071D0E0B4B00F013
:1001C0000F04241F1D5503E013071C0E084B1C547D
:1001D00000BF00204FF0E022906107201061002056
:1001E00008B100BFFEE730BD0000002018ED00E0C0
:1001F00000E400E010B500F001F810BD0CB50020DF
:10020000019000903348006840F480303149086024
:1002100000BF3048006800F4003000900198401C96
:100220000190009818B90198B0F5A06FF1D1294854
:10023000006800F4003010B10120009001E00020BF
:1002400000900098012843D12348006840F0100036
:10025000214908600846006820F00300086008464D
:10026000006840F0020008601A4840681949486078
:100270000846406848600846406840F4806048602E
:100280000846406820F47C1048600846406840F406
:10029000E81048600846006840F08070086000BFC1
:1002A0000C48006800F000700028F9D00948406848
:1002B00020F00300074948600846406840F002000B
:1002C000486000BF0348406800F00C000828F9D1DE
:1002D0000CBD0000001002400020024002480068EF
:1002E000401C0149086070471400002010B51348F5
:1002F000006840F001001149086008464068104954
:1003000008400E494860084600680E4908400B49FD
:1003100008600846006820F48020086008464068AD
:1003200020F4FE0048604FF41F008860FFF762FF72
:100330004FF000600449086010BD0000001002404A
:100340000000FFF8FFFFF6FE08ED00E002E008C83D
:10035000121F08C1002AFAD170477047002001E03F
:1003600001C1121F002AFBD1704710B5FFF70EFF25
:10037000002010BD940300080000002018000000B9
:100380004C030008AC030008180000200004000023
:100390005C03000800A24A04000000000000000006
:0C03A00001020304060708090000000029
:0400000508000131BD
:00000001FF
