:020000040800F2
:1000000048050020450100087F0C0008A10B0008EE
:100010007D0C0008D50600086B1B000800000000DE
:100020000000000000000000000000006F13000846
:1000300063080008000000006D0D00086516000848
:100040005F0100085F0100085F0100085F01000810
:100050005F0100085F0100085F0100085F01000800
:100060005F010008D10800081D0900085F010008B1
:100070005F0100085F0100085F0100085F010008E0
:100080005F0100085F0100085F0100085F010008D0
:100090005F0100085F0100085F01000849090008CE
:1000A0005F0100085F0100085F0100085F010008B0
:1000B0005F0100085F0100085F0100085F010008A0
:1000C0005F0100085F0100085F0100085F01000890
:1000D0005F0100085F0100085F01000809180008BF
:1000E0005F0100085F0100085F0100085F01000870
:1000F0005F0100085F0100085F0100085F01000860
:100100005F0100085F0100085F0100085F0100084F
:100110005F0100085F0100085F0100085F0100083F
:100120005F0100085F0100085F0100085F0100082F
:10013000DFF80CD000F018FA0048004785240008CA
:10014000480500200648804706480047FEE7FEE7CE
:10015000FEE7FEE7FEE7FEE7FEE7FEE7FEE7FEE777
:10016000F11600083101000830B50B4601460020A9
:100170002022012409E021FA02F59D4205D303FA69
:1001800002F5491B04FA02F52844151EA2F10102EA
:10019000F1DC30BD2DE9F05F0546002092469B461C
:1001A00088460646814640241BE02846414647468D
:1001B000224600F0FAF953465A46C01A914110D32C
:1001C00011461846224600F0E1F92D1A67EB0108A6
:1001D0004F4622460120002100F0D8F917EB000914
:1001E0004E41201EA4F10104DFDC484631462A4678
:1001F0004346BDE8F09F2DE9FE4F804681EA0300AB
:10020000C00F0C46009021F0004123F00045B8EBF0
:100210000200A94105D24046214690461C460B46A5
:10022000024623F00040104347D0270DC7F30A00D1
:10023000C3F30A510290401A019040286BDAC3F3CD
:10024000130040F4801B0098924620B10023D2EBAB
:10025000030A63EB0B0B01985946C0F1400250466C
:1002600000F094F906460D4650465946019A00F0B2
:10027000ACF910EB08006141002487EA115284EACE
:10028000E7731A4340D0009A62B3019A012A4FEAF9
:10029000075215DC001B61EB02014FF0004202EA3D
:1002A0000752CDE90042001C41F5801132462B4631
:1002B00000F0ACF903B0BDE8F08F40462146F9E705
:1002C000001B61EB0201001C41F5801300185B412B
:1002D0002018A2F5001747EB030140EAD570B619C4
:1002E0006D4111E06D084FEA360645EAC0754FEAE8
:1002F0000752001B61EB0201001C41F58011490807
:100300004FEA30000019514132462B4603B0BDE898
:10031000F04F00F06CB90098012240000023D0EBB0
:10032000020263EBE073009821464FEAE074B8EBF9
:10033000000061EB0401E9E783F000435BE781F033
:10034000004158E72DE9FE4F81EA030404F0004420
:1003500021F0004100944FF0000B23F0004350EADD
:1003600001045ED052EA03045BD0C3F30A54C1F324
:100370000A552C44A4F2F3340194A0FB0254C1F3B7
:10038000130141F48011C3F3130343F4801301FB01
:10039000024400FB034E840A970A44EA815447EA68
:1003A0008357A4FB076802958D0A05FB07854FEA72
:1003B000932C04FB0C542705029D4FEA065847EA8C
:1003C0001637B5EB08056EEB070C870E920E47EA61
:1003D000811742EA8312A7FB0201B6EB0B0164EB23
:1003E00000042B0D43EA0C335E1844EB1C50DA4634
:1003F0005146E7FB0201C5F313044FEA0B3343EA0E
:1004000014534FEA0432019C43EA0603A4F10C049E
:100410000294009CCDE900B400F0F8F803B0BDE808
:10042000F08F00200146F9E72DE9F04D81EA030441
:1004300004F0004B21F0004514464FF0000A23F071
:10044000004150EA050220D054EA01021DD0C5F354
:100450000A570246C5F31303C1F31300C1F30A564A
:1004600040F4801543F48013A7EB0608101BD64612
:1004700008F2FD3873EB050002D308F1010801E032
:1004800092185B41B8F1000F03DA00200146BDE885
:10049000F08D00204FF48011064684460EE0171BB5
:1004A00073EB050705D3121B63EB050306434CEA08
:1004B000010C49084FEA300092185B4150EA0107ED
:1004C000EDD152EA030012D082EA040083EA05016A
:1004D000084305D0101BAB4106D20122002306E0E1
:1004E00000224FF0004302E06FF0010253101AEBBC
:1004F00006004CEB085110EB0A0041EB0B01BDE884
:10050000F04D00F074B8C1F30A52C1F3130140F288
:10051000FF3341F480119A4202DA0020014670470D
:1005200040F233439A42A2F2334202DC524200F0DC
:100530003CB800F02BB8000030B5041E71F1000487
:1005400004DB4FF00044404264EB0101141E73F1E0
:10055000000405DB1C464FF00043524263EB0403EA
:10056000994208BF904230BD064C074D06E0E06856
:1005700040F0010394E8070098471034AC42F6D3EA
:10058000FFF7DAFD0027000820270008202A04DBF7
:10059000203A00FA02F1002070479140C2F1200396
:1005A00020FA03F3194390407047202A04DB203AD5
:1005B00021FA02F00021704721FA02F3D040C2F183
:1005C00020029140084319467047202A06DBCB17CA
:1005D000203A41FA02F043EAE07306E041FA02F3FE
:1005E000D040C2F12002914008431946704710B52F
:1005F000141E73F1000408DA401C41F10001921846
:100600005B411A4301D120F0010010BD2DE9F04DEE
:1006100092469B4611B1B1FA81F202E0B0FA80F243
:1006200020329046FFF7B2FF04460F4640EA0A0028
:1006300041EA0B0153465A46084313D0114653EA88
:10064000010019D0C8F140025046FFF7AEFF054641
:100650000E46504659464246FFF798FF084305D0DC
:10066000012004E020463946BDE8F08D0020054316
:1006700046EAE0762C4337430A986305E40AA0EB88
:1006800008000022FD0A44EA47540A3002D500203F
:100690000146E9E7010510196941DDE9084500193E
:1006A0006941BDE8F04DA2E708B50121082000F03E
:1006B00089FB4FF48070ADF8000010208DF8030026
:1006C00001208DF802006946014800F00BFA08BDD0
:1006D000000C0140FEE70000C10002D5024908609D
:1006E000704702494860704704040240000002401D
:1006F000002904D0016841F00101016070470168E0
:100700004FF6FE72114001607047000001684FF61D
:10071000FE72114001600021016041608160C16092
:100720003649364A0839904204D1486840F00F00F3
:1007300048607047314A1432904204D1486840F012
:10074000F000486070472D4A2832904204D1486832
:1007500040F4706048607047284A3C32904204D1AF
:10076000486840F4704048607047244A50329042D4
:1007700004D1486840F47020486070471F4A6432D2
:10078000904204D1486840F47000486070471B4AAA
:100790007832904204D1486840F0706048607047F9
:1007A000174A111F904204D1086840F00F000860FA
:1007B0007047134A1432904204D1086840F0F000A8
:1007C000086070470E4A2832904204D1086840F40D
:1007D0007060086070470A4A3C32904204D1086851
:1007E00040F4704008607047054A50329042FAD198
:1007F000086840F47020086070470000080002405C
:100800000804024002460020D10002D504490968CC
:1008100001E004490968114200D00120704700003E
:10082000000402400000024030B5026847F6F07351
:100830009A430C6A8B682343D1E904452C43234334
:100840008C692343CC6923434C6A23438C6A23433A
:1008500013430360CA6842600A6882604968C160E5
:1008600030BD70470E484FF47A710068B0FBF1F06C
:10087000B0F1807F01D301200DE020F07F414FF0E7
:10088000E020491E4161074AF02111700021816179
:10089000072101610020002800D0FEE7704700001A
:1008A0000000002023ED00E003490A680B689B1A52
:1008B0008342FBD3704700003000002000EBC000F3
:1008C000C00000E000BF401E411CFBD1704700008B
:1008D00010B5082000F042F8002813D001F00AFFFC
:1008E00009494A68821A142A07D948600120087009
:1008F00000F07AF905A001F039F9BDE810400820B0
:1009000000F026B810BD0000280000204B657931AA
:100910002070726573736564210D0A0010B5102094
:1009200000F01CF800280CD001F0E4FE05494A68EC
:10093000821A142A00D94860BDE81040102000F047
:1009400007B810BD280000204FF4807000F006B8F2
:10095000014908607047000014040140014600206E
:10096000054A12680A40044B14331B680B4202D03C
:10097000002A00D0012070470004014030B51B4A16
:1009800083790168002B2AD013688B431360111DF3
:100990000B680468A3430B60017911440B68046879
:1009A00023430B60114C083421680368994321608C
:1009B000231D19680568A94319604179102905D0DC
:1009C00011440A68006802430A6030BD2168026869
:1009D00011432160196800680143196030BD007936
:1009E000104402688A43026030BD000000040140E8
:1009F0003EB51024ADF8084048208DF80B000320C8
:100A00008DF80A0002A90D4800F06CF80121084693
:100A100000F0D8F90421084600F050F800F062F91F
:100A2000009400208DF804000C208DF805000120B2
:100A30008DF806006846FFF7A1FF3EBD0018014093
:100A40003EB50824ADF8084048208DF80B0003207F
:100A50008DF80A0002A90D4800F044F8012108466B
:100A600000F0B0F90321042000F028F800F04DF95F
:100A7000009400208DF804000C208DF80500012062
:100A80008DF806006846FFF779FF3EBD001801406B
:100A900004490A6822F010020A600A6802430A60E8
:100AA0007047000000200240034A116801F038013D
:100AB00001431160704700000020024010B58A0712
:100AC000120F0F23934021F00304054921448C6841
:100AD0009C438C608B68904003438B6010BD00008A
:100AE000000001402DE9F0410022CC7804F00F0312
:100AF000E40601D58C7823430C784FF00F0714F0EF
:100B0000FF0F4FF0010C1CD005680CFA02F40E88A0
:100B10002640A64211D1960007FA06F825EA0805F4
:100B200003FA06F848EA0505CE78282E02D0482EAA
:100B300002D002E0446100E00461521C082AE4D3C0
:100B400005600A88FF2A1ED94568002202F10806BE
:100B50000CFA06F40E882640A64210D1960007FA39
:100B600006F825EA080503FA06F848EA0505CE78EE
:100B7000282E00D14461CE78482E00D10461521C49
:100B8000082AE3D34560BDE8F08102460020926860
:100B90000A4200D0012070474161704701617047EF
:100BA000FEE7000008B50121042000F00BF9012147
:100BB000402000F007F90120ADF8000028208DF852
:100BC000030069460648FFF78DFF1820ADF80000C6
:100BD00048208DF8030069460248FFF783FF08BDEF
:100BE00000080140001801400248016881F020011E
:100BF000016070470C0C014038B50121402000F025
:100C0000E1F80121082000F0DDF82024ADF80040D3
:100C100010208DF8030001208DF802000A4D69466E
:100C20002846FFF75FFFADF80040084C69462046B4
:100C3000FFF758FF20212046FFF7B0FF202128466C
:100C4000FFF7ACFF38BD000000180140000C014068
:100C500008B50121802000F0B5F84FF48070ADF8A0
:100C6000000004208DF8030001208DF80200694681
:100C70000148FFF737FF08BD001C0140FEE7704741
:100C800070B50F23C27801260178002A1ED0144ABD
:100C9000126802F4E062C2F5E062120AC2F10404D2
:100CA000D3404578A54082781A402A43120101F1C9
:100CB000E02181F80024007800F01F018E404009F7
:100CC000800000F1E020C0F8006170BD01F01F005D
:100CD00086404809800000F1E020C0F8806170BDC6
:100CE0000CED00E008B54FF4C06000F021F80A20D8
:100CF0008DF8000001208DF801008DF802008DF8BC
:100D000003006846FFF7BCFF08BD08B54FF4C0609C
:100D100000F00EF809208DF8000001208DF8010088
:100D20008DF802008DF803006846FFF7A9FF08BDA3
:100D30000249084302490860704700000000FA05B4
:100D40000CED00E008B54FF4A060FFF7F1FF27209D
:100D50008DF8000000208DF8010001208DF80200C0
:100D60008DF803006846FFF78BFF08BD7047000051
:100D7000054A002903D05169014351617047516907
:100D8000814351617047000000100240054A00296C
:100D900003D0D1690143D1617047D1698143D161E9
:100DA0007047000000100240054A002903D0116975
:100DB000014311617047116981431161704700005F
:100DC00000100240054A002903D091690143916156
:100DD00070479169814391617047000000100240A3
:100DE000054A002903D0D1680143D1607047D1681A
:100DF0008143D16070470000001002400C48016838
:100E000041F00101016041680A4A114041600168F6
:100E1000094A11400160016821F4802101604168A4
:100E200021F4FE0141604FF41F0181607047000012
:100E3000001002400000FFF8FFFFF6FE10B5264A42
:100E4000516801F00C01254B002927D0042927D037
:100E5000082927D00360516801F0F0010909204BEF
:100E60005C5C0168E1404160546804F4E064240A79
:100E70001C5D21FA04F48460546804F46054E40AAC
:100E80001B5DD940C160526802F44042920B144B82
:100E90001B1F9A5CB1FBF2F1016110BD0360DAE740
:100EA0000360D8E7516801F47011536803F480338C
:100EB000022404EB914133B153689B0307D5094BDE
:100EC00059430160C7E7074B59430160C3E7034B30
:100ED00059430160BFE700000010024000127A0091
:100EE0001800002000093D00034600205909094A66
:100EF00001290AD002290AD0516A03F01F020123F6
:100F000093400B4200D0012070471168F5E7116A49
:100F1000F3E7000000100240034A516821F0F0019D
:100F20000143516070470000001002400C490A68FC
:100F300022F480320A600A6822F480220A60B0F546
:100F4000803F07D0B0F5802F03D1086840F4A0207F
:100F500008607047086840F48030086070470000FF
:100F60000010024001490860704700000000424242
:100F7000034A516821F4E061014351607047000069
:100F800000100240034A516821F4605141EAC00058
:100F90005060704700100240014908667047000029
:100FA00000004242034B5A6822F47C12084310436B
:100FB0005860704700100240034A516821F0030155
:100FC00001435160704700000010024018B5002036
:100FD00000904FF4A0643120FFF786FF0099491C70
:100FE00000910099A14201D00028F4D03120FFF7F0
:100FF0007BFF08B1012018BD002018BD70B5054663
:10100000FFF7FCFE4FF480342046FFF78FFFFFF719
:10101000DDFF01280ED00020FFF7CEFF0020FFF7F4
:101020007BFF0020FFF7A4FF0020FFF7ABFF00F0DD
:1010300021FBFEE71020FFF72BFD0220FFF734FD18
:1010400029462046FFF7AEFF0120FFF7A5FF392014
:10105000FFF74AFF0028FAD00020FFF75DFF4FF4AA
:101060008060FFF785FF0020FFF78CFF0220FFF76D
:10107000A3FF00F0FFFA0020FFF774FFBDE8704007
:1010800001214020FFF79EBE08B58020ADF800008A
:1010900048208DF8030069460148FFF723FD08BD8D
:1010A000000C014008B58020ADF8000014208DF838
:1010B000030003208DF8020069460248FFF712FD85
:1010C00008BD0000000C01402DE9F843002000900D
:1010D00000F094F8DFF840804FF4805739464046DE
:1010E000FFF75AFD9F2000F01BF8FF2000F016F8D4
:1010F0000446FF2000F012F80546FF2000F00EF82D
:10110000064639464046FFF749FD200440EA0520DF
:101110003043BDE8F8830000000C0140AFF30080CD
:1011200038B504464FF47A700090124D05E00098EF
:10113000421E009201D2002038BD0221284600F054
:10114000EFF80028F3D021462C46204600F0F1F8B5
:1011500005E00098411E009101D2002038BD012118
:10116000204600F0DDF80028F3D0204600F0DFF83C
:10117000C0B238BD003800402DE9F04104460D46AC
:10118000164600F027F8DFF848804FF480573946BC
:101190004046FFF701FD0220FFF7C2FFC4F30740FE
:1011A000FFF7BEFFC4F30720FFF7BAFFE0B2FFF777
:1011B000B7FF002403E0285DFFF7B2FF641CB442D0
:1011C000F9D339464046BDE8F041FFF7E7BC0000DF
:1011D000000C014070B5084D4FF48054214628465C
:1011E000FFF7DAFC0620FFF79BFF21462846BDE803
:1011F0007040FFF7D3BC0000000C0140F0B587B091
:1012000001218D032846FFF7C1FD01210820FFF7CA
:10121000D9FD6810ADF8180018268DF81B6003245E
:101220008DF81A40264F06A93846FFF75BFCADF84B
:10123000185004208DF81B008DF81A4006A9384676
:10124000FFF750FC6800ADF818008DF81B608DF8B2
:101250001A4006A93846FFF745FCAD10ADF8185006
:1012600010208DF81B008DF81A4006A93846FFF7AC
:1012700039FC0020ADF804004FF48271ADF806107F
:10128000ADF808000221ADF80A100121ADF80C10EC
:101290004902ADF80E10ADF81000ADF81200ADF82F
:1012A0001400084C01A9204600F045F80121204611
:1012B00000F00AF829463846FFF770FC07B0F0BD89
:1012C000000C014000380040002904D0018841F0A2
:1012D000400101807047018821F040010180704782
:1012E00070B504460D4E4FF4805529463046FFF741
:1012F00053FC2020FFF714FFC4F30740FFF710FF53
:10130000C4F30720FFF70CFFE0B2FFF709FF2946FF
:101310003046BDE87040FFF741BC0000000C0140C2
:101320000246002012890A4200D0012070478089BD
:1013300070478181704730B5028802F441530A88B2
:101340004C88CD8822438C882C4322430C8922432D
:101350004C8922438C892243CC8922431A43028040
:10136000828B22F400628283098A018230BD704739
:10137000AFF300800CB5002201920092274801686B
:1013800041F4803101604FF4A063016801F4003141
:1013900000910199491C0191009911B90199994253
:1013A000F3D10168890302D50121009100E0009288
:1013B0000099012930D11A490A6842F010020A60E6
:1013C0000A6822F003020A600A6842F002020A6018
:1013D0004168416041684160416841F48061416019
:1013E000416821F47C114160416841F4E811416099
:1013F000016841F08071016001688901FCD5416894
:1014000021F003014160416841F0020141604168FF
:10141000C1F381010229FAD10CBD00000010024085
:101420000020024038B501210820FFF7CBFCC02086
:10143000ADF8000014208DF8030003208DF80200A1
:10144000064C69462046FFF74DFB80212046FFF7FA
:10145000A5FB40212046FFF7A1FB38BD000C014051
:101460002DE9F04107460024FFF70EFE00251C4E33
:101470006006040E40213046FFF790FB0220FFF784
:101480001DFA80213046FFF780FB08B144F00104CB
:1014900040213046FFF780FB0220FFF70FFA6D1C5A
:1014A000082DE5DBFFF7FEFD27B180213046FFF771
:1014B00073FB03E080213046FFF770FB402130468C
:1014C000FFF76CFB0220FFF7F9F940213046FFF7E8
:1014D00063FB80213046FFF761FB2046BDE8F081C9
:1014E000000C014010B5044600F046F8A02000F0C2
:1014F00019F800F081F8204600F014F800F07CF8AC
:1015000000F03AF8A12000F00DF800F075F8002086
:10151000FFF7A6FF044600F04DF8C820FFF7CEF90C
:10152000204610BD70B50546FFF7BCFD0024114EE6
:10153000280604D580213046FFF730FB03E08021E8
:101540003046FFF729FB0220FFF7B8F9402130466B
:10155000FFF724FB0220FFF7B1F940213046FFF7E7
:101560001BFB0220FFF7AAF96806050E641C082C75
:10157000DEDB70BD000C014010B5FFF793FD0C4C95
:1015800080212046FFF70AFB40212046FFF706FB9B
:101590000520FFF793F980212046FFF7FDFA05208B
:1015A000FFF78CF92046BDE810404021FFF7F4BA60
:1015B000000C014010B5FFF775FD0E4C4021204690
:1015C000FFF7EAFA80212046FFF7E6FA0520FFF749
:1015D00075F940212046FFF7E1FA0520FFF76EF983
:1015E00080212046FFF7DAFABDE810400520FFF71A
:1015F00065B90000000C014070B5FFF745FD0A4CCD
:1016000040212046FFF7CAFA0220FFF757F9802150
:101610002046FFF7BAFA054640212046FFF7BCFAFC
:10162000FFF740FD284670BD000C014070B505462F
:101630000C46FFF7A1FFA020FFF774FFFFF7DCFFC8
:101640002846FFF76FFFFFF7D7FF2046FFF76AFF37
:10165000FFF7D2FFFFF7AEFFBDE87040C820FFF7ED
:101660002DB9000002480168491C01607047000064
:101670003000002010B51A4A506800F00C01194BD8
:10168000194800290ED004290ED008290ED0036075
:101690005168154AC1F30311121D515C0268CA401A
:1016A000026010BD0360F3E70360F1E7516801F4E5
:1016B0007011536803F48033022404EB914133B179
:1016C00053689B0307D5094B59430160E0E7074B7B
:1016D00059430160DCE7034B59430160D8E7000040
:1016E0000010024000127A000000002000093D00B6
:1016F00010B50F48016841F00101016041680D4AD1
:101700001140416001680C4A11400160016821F4F8
:1017100080210160416821F4FE0141604FF41F0106
:101720008160FFF725FE05494FF00060086010BD9D
:10173000001002400000FFF8FFFFF6FE08ED00E099
:1017400070B58CB005460C4601210846FFF710FB2A
:10175000114E3046FEF7DAFF104801900295002046
:101760000390049405908021069107900890202111
:10177000099109020A910B9001A93046FFF754F82C
:10178000064801224021001F00F0C0F80121304628
:10179000FEF7AEFF0CB070BD3000024004480040C0
:1017A00070B58CB004460D46154E00213046FEF74C
:1017B0009FFFA020FEF790FF01210846FFF7D8FA0F
:1017C0001048019002941020039004950020059089
:1017D0008021069107900890099089010A910B9049
:1017E00001A93046FFF720F8064801228021001F9A
:1017F00000F08CF801213046FEF77AFF0CB070BD86
:101800001C0002400448004070B50F4C40F22555C2
:101810002946204600F0DDF8002813D0204600F0CD
:1018200071F906468021204600F0CCF80028F9D056
:101830003146204600F079F929462046BDE870403F
:1018400000F050B870BD00000048004010B586B0F0
:1018500001218804FFF79AFA01210820FFF7B2FA64
:101860004FF48060ADF8140018208DF817000320A5
:101870008DF81600194C05A92046FFF733F9E1143D
:10188000ADF8141004218DF8171005A92046FFF7B4
:1018900029F9134C204600F043F84FF4E13101914F
:1018A0000021ADF80810ADF80A10ADF80C100C22AC
:1018B000ADF80E20ADF8101001A9204600F0C4F8D4
:1018C000FFF740FA0121204600F014F8012240F20F
:1018D0002551204600F09DF806B010BD000C0140D7
:1018E0000048004040F66A120A0A01219140C943AB
:1018F00001807047002904D0818941F40051818121
:101900007047818921F4005181817047002A03D0FA
:10191000828A0A4382827047828A8A43828270471F
:1019200010B5234988420AD101218C032046FFF7D4
:1019300057FA2046BDE810400021FFF751BA1D4973
:1019400088420AD101214C042046FFF72DFA204697
:10195000BDE810400021FFF727BA174988420AD195
:1019600001218C042046FFF71FFA2046BDE81040F5
:101970000021FFF719BA114988420AD10121CC048C
:101980002046FFF711FA2046BDE810400021FFF77E
:101990000BBA0B4988420AD101210C052046FFF7FA
:1019A00003FA2046BDE810400021FFF7FDB910BD45
:1019B000003801400044004000480040004C004016
:1019C000005000400246002012880A4200D0012048
:1019D000704770B5002440F66A12C1F3421301F05B
:1019E0001F05012606FA05F2012B0CD0022B0DD0A3
:1019F000838A1340090A8E40008830400BB100B141
:101A00000124204670BD83891340F3E7038A134005
:101A1000F0E710B540F66A13C1F3421301F01F045A
:101A20000121A140012B07D0022B07D014303AB17D
:101A300002680A43026010BD0C30F8E71030F6E788
:101A400002688A43026010BD30B585B004460D4679
:101A5000208A4CF6FF710840E98801432182A08961
:101A60004EF6F3110840A9882A8911436A89024376
:101A70001143A181A08A4FF6FF410840A989014383
:101A8000A1826846FFF7DAF91D48844201D1039824
:101A900000E00298A189090408D500EBC00101EB20
:101AA000001029684900B0FBF1F007E000EBC0012D
:101AB00001EB001029688900B0FBF1F06422B0FB53
:101AC000F2F109010B096FF018056B4300EB83007D
:101AD000A3891D044FF0320307D503EBC000B0FB10
:101AE000F2F000F00700084306E003EB0010B0FB43
:101AF000F2F000F00F000843208105B030BD000077
:101B0000003801408088C0F30800704770B5044673
:101B10000D4680212046FFF755FF0028F9D02946C1
:101B20002046BDE87040AFF30080C1F3080181801A
:101B3000704770B505460C460AE080212846FFF73D
:101B400041FF0028F9D021782846FFF7DFFF641C09
:101B500020780028F1D10D212846FFF7D7FF28462D
:101B6000BDE870400A21FFF7D1BFFEE70FB4054B77
:101B700010B503A9044A029800F0DAF810BC5DF829
:101B800014FB0000612400084000002002E008C8A7
:101B9000121F08C1002AFAD170477047002001E0E7
:101BA00001C1121F002AFBD1704700002DE9FF5F21
:101BB00082B00021DDE90430020DDDF840B00343BE
:101BC00018D044F61050A2F2FF3242431514119877
:101BD00001281FD0A5EB0B00401C5FEA000A4FF064
:101BE00000064E4FDFF83891B046504615D5CAF181
:101BF000000413E0119801244AA3012801D16FEADF
:101C00000B010298119AC0E90031C0E9024206B006
:101C1000BDE8F09FCBF10000DFE704460021404A19
:101C2000491842EB0450CDE9001012E0E00707D05C
:101C300032463B4640464946FEF784FB804689468D
:101C400032463B4610461946FEF77CFB06460F46D9
:101C50006410002CEAD1DDE90401DDE90023BAF1CA
:101C6000000F06DAFEF76EFB42464B46FEF76AFBB4
:101C700005E0FEF7D9FB42464B46FEF7D5FB04468E
:101C80000E460022284BFEF757FC03D84FF0FF30DA
:101C9000014607E00022254B20463146FEF7ABFA0D
:101CA000FEF731FC102409E0002C0ADB0A22002395
:101CB000FEF770FA039B30321A55641E50EA010297
:101CC000F2D1641C039AC4F111031444119A012A3D
:101CD00003D0012208430DD10AE0084304D00020BC
:101CE0004FF0110B119072E7A3EB0B056D1E0DE089
:101CF0005B4504DD4FF0000205F1010504E003DA65
:101D00004FF00002A5F10105002AECD002981199CC
:101D1000C0E90231C0E9004579E700000000144045
:101D20000000F03F300000000000F0430000E03F02
:101D30002DE9FF4F95B09B468946064600250FE2E8
:101D4000252877D100242746F84A0121059400E090
:101D5000044316F8013F203B01FA03F01042F7D18B
:101D600030782A2811D06FF02F033078A0F130029C
:101D7000092A16D8059A44F0020402EB820203EB0A
:101D800042021044761C0590EFE759F8042B0592A7
:101D9000002A03DA504244F40054059044F002044F
:101DA000761C30782E2816D116F8010F44F0040462
:101DB0002A280DD06FF02F023078A0F13003092BC4
:101DC00009D807EB870302EB4303C718761CF3E738
:101DD00059F8047B761C30786C280FD006DC4C2830
:101DE00017D068280DD06A2814D104E0742810D0C8
:101DF0007A280FD10DE044F400140AE044F4801472
:101E000001E044F440147278824202D104F5801457
:101E1000761C761C307866280BD013DC582877D0D7
:101E200009DC002875D04528F6D04628F4D047288C
:101E30001AD19DE118E0632835D0642879D065284F
:101E400012D195E1702873D008DC6728F1D0692899
:101E50006FD06E280DD06F2806D1B5E073282CD036
:101E6000752875D0782874D05A46179990476D1CFC
:101E700075E1C4F30250022809D003280DD0D9F827
:101E8000001004280DD00D6009F1040967E1D9F8AC
:101E90000010EA17C1E90052F6E7D9F800100D80EA
:101EA000F2E70D70F0E719F8041B8DF80010002020
:101EB0008DF80100EA46012003E059F804AB4FF029
:101EC000FF3061074FF0000102D40DE008F101017D
:101ED0008846B9420FDA8045F8DB1AF80810002965
:101EE000F4D108E008F1010188468142FADB1AF8D2
:101EF00008100029F6D105985B46A0EB080721469B
:101F00003846179A00F094FA284400EB080507E0D9
:101F10004DE029E10DE01AF8010B5A461799904758
:101F2000B8F10108F7D25B4621463846179A13E10B
:101F300042E00A220092C4F302524FF0000A022A41
:101F400008D059F804CB032A4FEAEC710AD00DE00F
:101F500029E02AE009F1070121F00702F2E802C1B5
:101F6000914609E00FFA8CFC4FEAEC71042A03D188
:101F70004FFA8CFC4FEAEC71002907DA0A4600217F
:101F8000DCF1000C61EB02012D2202E0220504D5F8
:101F90002B228DF80420012203E0E20701D0202249
:101FA000F7E7904659E00A2102E010220DE01021E7
:101FB0004FF0000A00910BE010224FF0000A44F0AD
:101FC00004040827009203E008224FF0000A009260
:101FD000C4F30252022A05D059F804CB0021032A87
:101FE00008D009E009F1070121F00702F2E802C177
:101FF000914605E01FFA8CFC042A01D10CF0FF0C7D
:102000004FF00008220728D5702806D0009B83F0E7
:10201000100353EA0A0305D00EE040228DF8042095
:10202000012208E05CEA010206D030228DF804208B
:102030008DF8050002229046009B83F0080353EAC6
:102040000A030AD15CEA010201D1620705D53022F8
:102050008DF804204FF001087F1E582804D034A0CA
:1020600003900EA802900DE036A0F9E753466046B3
:10207000009AFEF78FF884460398825C0298401E0F
:10208000029002705CEA0100F0D1029806A9081AD9
:1020900000F1200A600702D524F4803400E0012713
:1020A000574502DDA7EB0A0000E0002000EB0A0123
:1020B000009005984144401A0590E00306D45B4621
:1020C0002146179A059800F0B3F90544002706E069
:1020D00001A85A46C05D179990476D1C7F1C474563
:1020E000F6DBE0030CD55B462146179A059800F015
:1020F0009FF9054404E030205A46179990476D1C1B
:102100000099481E00900029F5DC08E00298029929
:102110005A460078491C0291179990476D1CBAF1F4
:102120000001AAF1010AF1DC65E1000009280100C3
:10213000303132333435363738396162636465663D
:1021400000000000303132333435363738394142FF
:10215000434445460000000000F058F90544761C51
:10216000307800287FF4ECAD19B02846BDE8F08F38
:10217000620700D4062709F1070222F0070CFCE8E9
:102180000223E14603F000485FEA080C02D00FF298
:10219000702C0DE05FEA045C02D50FF2682C07E0BA
:1021A0005FEAC47C02D00FF2602C01E0AFF2700C49
:1021B0004FF0FF3823F00043CDF850C065280CD015
:1021C00006DC452809D046281DD047283DD13DE0F2
:1021D000662818D067287ED138E00021112F01DB56
:1021E000112000E0781CCDE9000106A90EA8FFF738
:1021F000DDFCDDE90F010E9A03910021009207F149
:10220000010A04914DE04FF000400097CDE9011024
:1022100006A90EA8FFF7CAFCDDE90F0203920E9B88
:1022200011990022DDF80CA00093049211B9791CD9
:1022300000EB010AB7EB0A0004D4C0F1FF3007F14C
:10224000010A0490AAEB0700019044E0012F00DA94
:1022500001270021112F01DD112000E03846CDE9D2
:10226000000106A90EA8FFF7A1FCDDE90F010E9AF7
:102270000391002104910092BA4621070CD40399DE
:10228000514500DA8A46BAF1010F05DD009AAAF13C
:102290000101515C302908D0B84202DA10F1040F74
:1022A00006DA0121CDE9011015E0AAF10101E9E703
:1022B000002805DC049901440491AAEB000102E026
:1022C000411C514500DD8A460499401A401C01908A
:1022D0004FF000400290200704D40198504501DBE4
:1022E000CDF8048000208DF84F0002980DF14F07C3
:1022F000B0F1004F25D02B200E9002984FF002082D
:1023000000280CDA404202902D200E9007E00A21AE
:102310000298FDF729FF3031029007F8011DB8F14E
:102320000001A8F10108F2DC02980028EFD1791E23
:102330000E980870307800F0200040F0450007F853
:10234000020D12A8C01B00F107081498007800B114
:10235000012000EB0A01019801EBE071059841446E
:10236000401A401E0590E00306D45B462146179AAA
:10237000059800F05DF805441498007818B15A46A5
:10238000179990476D1CE00324D55B462146179AA8
:10239000059800F04DF805441CE00498002807DB80
:1023A000DDE90301884203DD0098405C179901E0F4
:1023B000179930205A469047049805F10105401CB2
:1023C00004900198401E019004D12E205A4617997E
:1023D00090476D1CBAF10001AAF1010ADDDC05E0AD
:1023E00017F8010B5A46179990476D1CB8F1000178
:1023F000A8F10108F4DC5B462146179A0598ABE684
:102400002D0000002B000000200000002DE9F0410D
:10241000044600251E461746880404D405E03946C4
:102420002020B0476D1C641EF9D52846BDE8F08118
:102430002DE9F041044600251E469046C80301D50B
:10244000302700E02027880404D505E041463846BF
:10245000B0476D1C641EF9D52846BDE8F081000028
:1024600070B50446064D80212846FFF7ABFA0028D8
:10247000F9D0E1B22846FFF758FB204670BD0000B6
:102480000048004008B54FF4E010FEF7B7FDFEF736
:10249000E9F9FEF7B1FBFEF707F9FEF783FBFEF75C
:1024A000D7FBFFF7D3F95F4F59A13846FFF741FB40
:1024B000FEF7C6FAFEF79CFAB9155B48FFF740F93C
:1024C000FEF7B0FF22210020FFF7B0F80020FFF751
:1024D00009F8014655A0FFF749FBFEF78FFEFEF70E
:1024E000F3FDFEF7F1FD014655A0FFF73FFB4FF46A
:1024F000FA60FEF7D9F900260096FEF76BFE002081
:10250000FEF7EEFE6420FEF7CFF952A0FFF72EFB98
:10251000FEF760FEDFF860914FF480584146484670
:10252000FEF73AFB0320FEF7FBFD0020FEF7F6FD69
:102530000020FEF7F3FD0020FEF7F0FD00246D46BD
:10254000FF20FEF7EBFD285501464CA0FFF70EFBE0
:10255000641C032CF4DB4BA0FFF708FB4146484604
:10256000FEF71CFB112248A10020FEF705FE6420A7
:10257000FEF79AF9FEF72EFE41464846FEF70CFBA1
:102580000320FEF7CDFD0020FEF7C8FD0020FEF77A
:10259000C5FD0020FEF7C2FD0024FF20FEF7BEFDB2
:1025A0002855641C102CF8DB3CA0FFF7DFFA002450
:1025B00040A0295DFFF7DAFA641C102CF8DB31A08B
:1025C000FFF7D4FA41464846FEF7E8FA3B4C20783C
:1025D0000028FCD026700A213948FFF7E1F8802056
:1025E000FEF710F930B137A13846FFF7A2FA802084
:1025F000FEF772F82020FEF705F90028FAD0202017
:10260000FEF76AF835A13846FFF793FADFE70000D6
:1026100054657374696E6720444D412E2E2E0D0A49
:102620000000000000480040440000205265616442
:1026300020646174613A203078253032580D0A00E8
:1026400053504920466C6173682049443A202573F1
:102650002000000045726173696E672073656374C2
:102660006F7220302E2E2EE693A6E999A4E688906C
:10267000E58A9F0D0A000000000C01402530325809
:10268000000000000D0A000048656C6C6F2C2053A0
:10269000504920466C6173682100000053746174D6
:1026A00075732061667465722077726974653A206B
:1026B00000000000253032582000000028000020D3
:1026C00034000020444D41207472616E736665725F
:1026D000206572726F72210D00000000444D412090
:1026E0007472616E7366657220636F6D706C657471
:1026F00065210A0001480068704700003000002092
:102700002027000800000020440000008C1B000867
:102710006427000844000020040500009C1B0008FA
:1027200000A24A04000000000000000001020304AF
:10273000060708090204060800000000010203045D
:102740000102030406070809000000000000000061
:102750000000000054657374363636210D0A0000FF
:042760000000000075
:0400000508000131BD
:00000001FF
