:020000040800F2
:1000000020040020450100081906000869050008C1
:1000100015060008E1010008190B000800000000A7
:1000200000000000000000000000000019090008A6
:10003000E501000800000000C7060008050A0008E6
:100040005F0100085F0100085F0100085F01000810
:100050005F0100085F0100085F0100085F01000800
:100060005F010008690200085F0100085F010008E5
:100070005F0100085F0100085F0100085F010008E0
:100080005F0100085F0100085F0100085F010008D0
:100090005F0100085F0100085F0100089D02000881
:1000A0005F0100085F0100085F0100085F010008B0
:1000B0005F0100085F0100085F0100085F010008A0
:1000C0005F0100085F0100085F0100085F01000890
:1000D0005F0100085F0100085F0100085F01000880
:1000E0005F0100085F0100085F0100085F01000870
:1000F0005F0100085F0100085F0100085F01000860
:100100005F0100085F0100085F0100085F0100084F
:100110005F0100085F0100085F0100085F0100083F
:100120005F0100085F0100085F0100085F0100082F
:10013000DFF80CD000F018F8004800473D0B00082D
:10014000200400200648804706480047FEE7FEE7F7
:10015000FEE7FEE7FEE7FEE7FEE7FEE7FEE7FEE777
:10016000B90A000831010008064C074D06E0E068B6
:1001700040F0010394E8070098471034AC42F6D3EE
:10018000FFF7DAFF9C0B0008BC0B000808B5012143
:10019000082000F099FA4FF48070ADF800001020AC
:1001A0008DF8030001208DF802006946014800F037
:1001B00043F908BD000C014010B54FF480710248AE
:1001C00000F0CEF910BD0000000C014010B54FF456
:1001D0008071024800F0C6F910BD0000000C01401B
:1001E00000BFFEE77047000030B5164800684FF4C6
:1001F0007A72B0FBF2F1B1F1807F01D301201DE0F2
:1002000021F07F40401E4FF0E022506150170F2236
:10021000002807DA13071D0E0B4B00F00F04241FF4
:100220001D5503E013071C0E084B1C5400BF002093
:100230004FF0E022906107201061002008B100BF5C
:10024000FEE730BD0000002018ED00E000E400E013
:10025000044A116800BF034A1268521A8242FAD354
:10026000704700001800002010B5082000F022F8A8
:1002700078B10A20FFF7ECFF0821064800F067F983
:1002800020B901200449087000F080F9082000F02E
:100290000BF810BD001801401400002010B54FF4F9
:1002A000807000F007F810BD014908607047000039
:1002B00014040140014600200022074B1B6803EA9A
:1002C0000102054B14331B680B4013B10AB1012026
:1002D00000E0002070470000000401400021234995
:1002E0008279002A3AD00A46126803689A430B467C
:1002F0001A600A1D126803689A430B1D1A6002797E
:1003000011440A6803681A430A60184A08321268DE
:1003100003689A43154B08331A601A1D1268036864
:100320009A43124B0C331A604279102A0ED11A1FCD
:10033000126803681A430D4B08331A601A1D1268BD
:1003400003681A43094B0C331A600DE007494279E0
:1003500011440A6803681A430A6005E002791144EF
:100360000A6803689A430A6070470000000401406D
:100370000EB50820ADF8080048208DF80B000120CC
:100380008DF80A0002A90E4800F056F8012108462F
:1003900000F09AF90321042000F02EF800F080F913
:1003A0000820009000208DF804000C208DF8050036
:1003B00001208DF806006846FFF790FF0EBD000093
:1003C000001801400549096821F01001034A116035
:1003D0001146096801431160704700000020024087
:1003E00001460020034A106800F0380008431060FE
:1003F000704700000020024030B500228B071C0F20
:100400000F2303FA04F20B4B8C1053F82430934360
:10041000084C8D1044F8253023468C1053F82430B6
:100420008C07240F00FA04F42343024C8D1044F887
:10043000253030BD080001402DE9F041024600257D
:100440000026002000230024002791F803C00CF0B0
:100450000F0591F803C00CF0100CBCF1000F03D095
:1004600091F802C04CEA050591F800C0BCF1000FFC
:1004700031D0146800202BE04FF0010C0CFA00F38F
:10048000B1F800C00CEA03069E4220D183004FF071
:100490000F0C0CFA03F7BC4305FA03FC4CEA040406
:1004A00091F803C0BCF1280F06D14FF0010C0CFAF3
:1004B00000FCC2F814C00AE091F803C0BCF1480F78
:1004C00005D14FF0010C0CFA00FCC2F810C0401C22
:1004D0000828D1D31460B1F800C0BCF1FF0F34DD9F
:1004E000546800202EE000F1080C4FF0010808FAD3
:1004F0000CF3B1F800C00CEA03069E4221D1830040
:100500004FF00F0C0CFA03F7BC4305FA03FC4CEA5E
:10051000040491F803C0BCF1280F05D100F1080CC8
:1005200008FA0CF8C2F8148091F803C0BCF1480F27
:1005300007D100F1080C4FF0010808FA0CF8C2F8D6
:100540001080401C0828CED35460BDE8F0810246DC
:10055000002093680B400BB1012000E000207047A1
:10056000416170470161704700BFFEE710B520216F
:100570000148FFF7F7FF10BD000C014010B5202126
:100580000148FFF7EDFF10BD000C01400348006873
:1005900080F0200001490860704700000C0C014009
:1005A00010B520210148FFF7DDFF10BD0018014004
:1005B00010B520210148FFF7D3FF10BD00180140FE
:1005C00008B50121402000F07FF80121082000F04B
:1005D0007BF82020ADF8000010208DF803000120EA
:1005E0008DF8020069460948FFF726FF2020ADF884
:1005F000000069460648FFF71FFF20210448FFF767
:10060000B1FF20210148FFF7ADFF08BD00180140F0
:10061000000C014000BFFEE77047000070B50021EC
:1006200000230F22C47804B3154C246804F4E0645A
:10063000C4F5E064210AC1F10403CA40447804FA15
:1006400003F184781440214309010E4C0678A1552A
:10065000047804F01F050124AC4005786D11AD004D
:1006600005F1E025C5F8004109E0047804F01F0514
:100670000124AC40044D0678761145F8264070BD43
:100680000CED00E000E400E080E100E002490143FD
:10069000024A1160704700000000FA050CED00E00E
:1006A00008B54FF4C060FFF7F1FF09208DF8000096
:1006B00001208DF801008DF802008DF803006846D6
:1006C000FFF7ACFF08BD704729B1064A92690243A3
:1006D000044B9A6104E0034A92698243014B9A6198
:1006E00070470000001002400F48006840F0010011
:1006F0000D490860084640680C4908400A494860AE
:10070000084600680A49084007490860084600682A
:1007100020F4802008600846406820F4FE0048600D
:100720004FF41F0088607047001002400000FFF87F
:10073000FFFFF6FE10B501460022002300204A11FB
:10074000012A02D1094C236806E0022A02D1074C93
:10075000236A01E0054C636A01F01F020124944002
:100760001C400CB1012000E0002010BD0010024030
:1007700001460020034A506820F0F0000843506012
:1007800070470000001002401149096821F48031CF
:100790000F4A11601146096821F480211160B0F5FB
:1007A000803F03D0B0F5802F0ED106E008490968DC
:1007B00041F48031064A116007E00549096841F4B7
:1007C000A021034A116000E000BF00BF7047000095
:1007D00000100240014908607047000000004242DA
:1007E00001460020034A506820F4E060084350604E
:1007F000704700000010024001460020034A506884
:1008000020F4605040EAC100506070470010024080
:10081000014908667047000000004242024600207D
:10082000044B586820F47C1042EA01031843014B42
:10083000586070470010024001460020034A50688B
:1008400020F0030008435060704700000010024091
:1008500038B5002000900024002500BF3120FFF7AC
:1008600069FF05460098401C00900098B0F5A06F05
:1008700001D0002DF2D03120FFF75CFF08B1012438
:1008800000E00024204638BD70B50446FFF72CFF79
:100890004FF48030FFF778FFFFF7DAFF0546012DB0
:1008A00025D11020FFF78EFD0220FFF799FD21468C
:1008B0002804FFF7B3FF0120FFF7AAFF00BF39208C
:1008C000FFF738FF0028FAD00020FFF751FF4FF460
:1008D0008060FFF785FF0020FFF78EFF0220FFF703
:1008E000ABFF00F097F80020FFF774FF0FE0002047
:1008F000FFF7A2FF0020FFF73BFF0020FFF770FF8C
:100900000020FFF779FF00F085F800BFFEE7012126
:100910004020FFF7D9FE70BD704710B500F002F817
:1009200010BD00000CB50020019000903348006815
:1009300040F480303149086000BF3048006800F45E
:10094000003000900198401C0190009818B901985F
:10095000B0F5A06FF1D12948006800F4003010B163
:100960000120009001E0002000900098012843D170
:100970002348006840F010002149086008460068DC
:1009800020F0030008600846006840F0020008609C
:100990001A48406819494860084640684860084657
:1009A000406840F4806048600846406820F47C104D
:1009B00048600846406840F4E8104860084600680F
:1009C00040F08070086000BF0C48006800F00070C4
:1009D0000028F9D00948406820F003000749486022
:1009E0000846406840F00200486000BF0348406885
:1009F00000F00C000828F9D10CBD000000100240E6
:100A00000020024002480068401C0149086070470D
:100A10001800002010B5002100200022214B5B6847
:100A200003F00C0121B1042906D0082928D107E0E0
:100A30001D4B1E4C236027E01B4B1C4C236023E006
:100A4000184B5B6803F47010164B5B6803F480323C
:100A5000022303EB904022B9154B4343134C236010
:100A60000DE0104B5B6803F4003323B1104B43439C
:100A70000E4C236003E00C4B43430C4C236003E01B
:100A8000094B0A4C236000BF00BF064B5B68C3F3F1
:100A90000313084CE15C054B1B68CB40034C2360FF
:100AA00010BD00000010024000127A00000000207B
:100AB00000093D000400002010B51348006840F014
:100AC00001001149086008464068104908400E4975
:100AD0004860084600680E4908400B49086008460F
:100AE000006820F4802008600846406820F4FE007A
:100AF00048604FF41F008860FFF70FFF4FF0006061
:100B00000449086010BD0000001002400000FFF81A
:100B1000FFFFF6FE08ED00E000BFFEE702E008C8B8
:100B2000121F08C1002AFAD170477047002001E067
:100B300001C1121F002AFBD1704700004FF4E010E2
:100B4000FFF7A2FEFFF750FBFFF73AFDFFF71EFB92
:100B5000FFF70EFC1FE01048007820B100200E497E
:100B60000870FFF713FDFFF709FDFFF719FD64207B
:100B7000FFF76EFBFFF72AFB6420FFF769FBFFF727
:100B80001BFB6420FFF764FBFFF7F0FCFFF710FD91
:100B90006420FFF75DFBDEE714000020BC0B0008BB
:100BA000000000201C0000001C0B0008D80B0008EF
:100BB0001C000020040400002C0B000800A24A04C2
:100BC00000000000000000000102030406070809FD
:080BD00000000000000000001D
:0400000508000131BD
:00000001FF
