:020000040800F2
:100000003808002045010008B9070008EB06000881
:10001000B5070008B9010008B1120008000000008F
:10002000000000000000000000000000390C000883
:10003000AD0300080000000091080008250D00082D
:100040005F0100085F0100085F0100085F01000810
:100050005F0100085F0100085F0100085F01000800
:100060005F010008190400085F0100085F01000833
:100070005F0100085F0100085F0100085F010008E0
:100080005F0100085F0100085F0100085F010008D0
:100090005F0100085F0100085F01000835040008E7
:1000A0005F0100085F0100085F0100085F010008B0
:1000B0005F0100085F0100085F0100085F010008A0
:1000C0005F0100085F0100085F0100085F01000890
:1000D0005F0100085F0100085F010008FD0E0008D5
:1000E0005F0100085F0100085F0100085F01000870
:1000F0005F0100085F0100085F0100085F01000860
:100100005F0100085F0100085F0100085F0100084F
:100110005F0100085F0100085F0100085F0100083F
:100120005F0100085F0100085F0100085F0100082F
:10013000DFF80CD000F018F800480047D51200088E
:10014000380800200648804706480047FEE7FEE7DB
:10015000FEE7FEE7FEE7FEE7FEE7FEE7FEE7FEE777
:10016000D90D000831010008064C074D06E0E06893
:1001700040F0010394E8070098471034AC42F6D3EE
:10018000FFF7DAFFCC130008EC13000808B50121D3
:10019000082000F0AFFB4FF48070ADF80000102095
:1001A0008DF8030001208DF802006946014800F037
:1001B0000FFA08BD000C014000BFFEE700F08051BF
:1001C00011B10349086001E002494860704700002E
:1001D000040402400000024021B1026842F0010222
:1001E000026004E002684FF6FE731A400260704736
:1001F00001684FF6FE72114001600021016041600C
:100200008160C1604B49884208D14A490839496830
:1002100041F00F01474A083A51608AE045491431DC
:10022000884208D143490839496841F0F001414A00
:10023000083A51607DE03F492831884208D13D4964
:100240000839496841F470613A4A083A516070E0EF
:1002500038493C31884208D136490839496841F467
:100260007041344A083A516063E032495031884263
:1002700008D130490839496841F470212D4A083ABB
:10028000516056E02B496431884208D12949083928
:10029000496841F47001274A083A516049E025490C
:1002A0007831884208D123490839496841F07061A2
:1002B000204A083A51603CE01F49884206D1011F9C
:1002C000096841F00F01021F116032E01A49143130
:1002D000884208D11849091F096841F0F001164AFF
:1002E000121F116025E014492831884208D11249B3
:1002F000091F096841F470610F4A121F116018E06C
:100300000D493C31884208D10B49091F096841F465
:100310007041094A121F11600BE0074950318842B1
:1003200007D10549091F096841F47021024A121FCB
:100330001160704708000240080402400146486806
:1003400080B2704701460020002201F0805313B1B3
:10035000054B1A6801E0054B1A6802EA01030BB16C
:10036000012000E00020704700040240000002402D
:1003700010B50022026847F6F0739A430C6A8B6846
:1003800023430C6923434C6923438C692343CC6981
:1003900023434C6A23438C6A23431A430260CB688D
:1003A00043600B6883604B68C36010BD70470000FA
:1003B00030B5164800684FF47A72B0FBF2F1B1F133
:1003C000807F01D301201DE021F07F40401E4FF0CF
:1003D000E022506150170F22002807DA13071D0E84
:1003E0000B4B00F00F04241F1D5503E013071C0ED8
:1003F000084B1C5400BF00204FF0E0229061072002
:100400001061002008B100BFFEE730BD00000020F1
:1004100018ED00E000E400E010B5082000F016F848
:1004200028B1012002490870082000F009F810BD29
:100430002800002010B54FF4807000F007F810BDC0
:100440000149086070470000140401400146002083
:100450000022074B1B6803EA0102054B14331B689B
:100460000B4013B10AB1012000E0002070470000EA
:1004700000040140002123498279002A3AD00A462B
:10048000126803689A430B461A600A1D12680368D3
:100490009A430B1D1A60027911440A6803681A43D3
:1004A0000A60184A0832126803689A43154B0833E9
:1004B0001A601A1D126803689A43124B0C331A60B3
:1004C0004279102A0ED11A1F126803681A430D4B85
:1004D00008331A601A1D126803681A43094B0C335B
:1004E0001A600DE00749427911440A6803681A430B
:1004F0000A6005E0027911440A6803689A430A60B9
:1005000070470000000401400EB50820ADF8080057
:1005100048208DF80B0001208DF80A0002A90E4832
:1005200000F056F80121084600F0E4F90321042008
:1005300000F02EF800F07AF90820009000208DF8E5
:1005400004000C208DF8050001208DF80600684697
:10055000FFF790FF0EBD0000001801400549096833
:1005600021F01001034A116011460968014311602E
:10057000704700000020024001460020034A106836
:1005800000F038000843106070470000002002406F
:1005900030B500228B071C0F0F2303FA04F20B4B1C
:1005A0008C1053F824309343084C8D1044F82530B8
:1005B00023468C1053F824308C07240F00FA04F4DF
:1005C0002343024C8D1044F8253030BD0800014013
:1005D0002DE9F041024600250026002000230024DA
:1005E000002791F803C00CF00F0591F803C00CF040
:1005F000100CBCF1000F03D091F802C04CEA0505C5
:1006000091F800C0BCF1000F31D0146800202BE03D
:100610004FF0010C0CFA00F3B1F800C00CEA03062D
:100620009E4220D183004FF00F0C0CFA03F7BC431D
:1006300005FA03FC4CEA040491F803C0BCF1280F4E
:1006400006D14FF0010C0CFA00FCC2F814C00AE00D
:1006500091F803C0BCF1480F05D14FF0010C0CFA22
:1006600000FCC2F810C0401C0828D1D31460B1F8B7
:1006700000C0BCF1FF0F34DD546800202EE000F113
:10068000080C4FF0010808FA0CF3B1F800C00CEAAE
:1006900003069E4221D183004FF00F0C0CFA03F7A2
:1006A000BC4305FA03FC4CEA040491F803C0BCF116
:1006B000280F05D100F1080C08FA0CF8C2F81480D4
:1006C00091F803C0BCF1480F07D100F1080C4FF0BE
:1006D000010808FA0CF8C2F81080401C0828CED394
:1006E0005460BDE8F0810161704700BFFEE7000083
:1006F00008B50121042000F0FDF80121402000F0A0
:10070000F9F80120ADF8000028208DF803006946B3
:100710000648FFF75DFF1820ADF8000048208DF86F
:10072000030069460248FFF753FF08BD0008014077
:100730000018014008B50121402000F0DBF801213C
:10074000082000F0D7F82020ADF8000010208DF828
:10075000030001208DF8020069460948FFF738FFC1
:100760002020ADF8000069460648FFF731FF202140
:100770000448FFF7B8FF20210148FFF7B4FF08BD88
:1007800000180140000C014008B50121802000F054
:10079000B1F84FF48070ADF8000004208DF803002C
:1007A00001208DF8020069460148FFF711FF08BDDE
:1007B000001C014000BFFEE77047000070B500213B
:1007C00000230F22C47804B3154C246804F4E064B9
:1007D000C4F5E064210AC1F10403CA40447804FA74
:1007E00003F184781440214309010E4C0678A15589
:1007F000047804F01F050124AC4005786D11AD00AC
:1008000005F1E025C5F8004109E0047804F01F0572
:100810000124AC40044D0678761145F8264070BDA1
:100820000CED00E000E400E080E100E008B54FF4EA
:10083000C06000F00FF809208DF8000001208DF84D
:1008400001008DF802008DF803006846FFF7B6FF3F
:1008500008BD000002490143024A116070470000D0
:100860000000FA050CED00E008B54FF4A060FFF7BA
:10087000F1FF27208DF8000000208DF801000120F5
:100880008DF802008DF803006846FFF797FF08BD5A
:100890007047000029B1064A52690243044B5A616D
:1008A00004E0034A52698243014B5A6170470000D9
:1008B0000010024029B1064AD2690243044BDA61B2
:1008C00004E0034AD2698243014BDA6170470000B9
:1008D0000010024029B1064A12690243044B1A6112
:1008E00004E0034A12698243014B1A617047000019
:1008F0000010024029B1064A92690243044B9A61F2
:1009000004E0034A92698243014B9A6170470000F8
:100910000010024029B1064AD2680243044BDA6053
:1009200004E0034AD2688243014BDA60704700005A
:10093000001002400F48006840F001000D490860B7
:10094000084640680C4908400A4948600846006863
:100950000A490840074908600846006820F48020DA
:1009600008600846406820F4FE0048604FF41F000D
:1009700088607047001002400000FFF8FFFFF6FE9D
:1009800030B500210022002400232D4D6D6805F0B4
:100990000C0121B1042905D0082923D105E0294DF6
:1009A000056022E0274D05601FE0254D6D6805F4C8
:1009B0007012234D6D6805F48034022505EB9242D8
:1009C0001CB9214D554305600BE01D4D6D6805F4C4
:1009D00000351DB11C4D5543056002E0194D5543CE
:1009E000056002E0174D056000BF00BF144D6D6843
:1009F00005F0F0010909154D6B5C0568DD404560A7
:100A00000F4D6D6805F4E061090A104D6B5C456897
:100A1000DD4085600A4D6D6805F46051C90A0B4DD3
:100A20006B5C4568DD40C560054D6D6805F440416F
:100A3000890B074D6B5CC568B5FBF3F5056130BDEF
:100A40000010024000127A0000093D00140000204E
:100A50002400002010B501460022002300204A1186
:100A6000012A02D1094C236806E0022A02D1074C70
:100A7000236A01E0054C636A01F01F0201249440DF
:100A80001C400CB1012000E0002010BD001002400D
:100A900001460020034A506820F0F00008435060EF
:100AA00070470000001002401149096821F48031AC
:100AB0000F4A11601146096821F480211160B0F5D8
:100AC000803F03D0B0F5802F0ED106E008490968B9
:100AD00041F48031064A116007E00549096841F494
:100AE000A021034A116000E000BF00BF7047000072
:100AF00000100240014908607047000000004242B7
:100B000001460020034A506820F4E060084350602A
:100B1000704700000010024001460020034A506860
:100B200020F4605040EAC10050607047001002405D
:100B3000014908667047000000004242024600205A
:100B4000044B586820F47C1042EA01031843014B1F
:100B5000586070470010024001460020034A506868
:100B600020F003000843506070470000001002406E
:100B700038B5002000900024002500BF3120FFF789
:100B800069FF05460098401C00900098B0F5A06FE2
:100B900001D0002DF2D03120FFF75CFF08B1012415
:100BA00000E00024204638BD70B50446FFF7C2FEC1
:100BB0004FF48030FFF778FFFFF7DAFF0546012D8D
:100BC00025D11020FFF7CAFC0220FFF7D5FC2146F3
:100BD0002804FFF7B3FF0120FFF7AAFF00BF392069
:100BE000FFF738FF0028FAD00020FFF751FF4FF43D
:100BF0008060FFF785FF0020FFF78EFF0220FFF7E0
:100C0000ABFF00F097F80020FFF774FF0FE0002023
:100C1000FFF7A2FF0020FFF73BFF0020FFF770FF68
:100C20000020FFF779FF00F085F800BFFEE7012103
:100C30004020FFF75FFE70BD704710B500F002F86E
:100C400010BD00000CB500200190009033480068F2
:100C500040F480303149086000BF3048006800F43B
:100C6000003000900198401C0190009818B901983C
:100C7000B0F5A06FF1D12948006800F4003010B140
:100C80000120009001E0002000900098012843D14D
:100C90002348006840F010002149086008460068B9
:100CA00020F0030008600846006840F00200086079
:100CB0001A48406819494860084640684860084634
:100CC000406840F4806048600846406820F47C102A
:100CD00048600846406840F4E810486008460068EC
:100CE00040F08070086000BF0C48006800F00070A1
:100CF0000028F9D00948406820F0030007494860FF
:100D00000846406840F00200486000BF0348406861
:100D100000F00C000828F9D10CBD000000100240C2
:100D20000020024002480068401C014908607047EA
:100D30002C00002010B5002100200022214B5B6810
:100D400003F00C0121B1042906D0082928D107E0BD
:100D50001D4B1E4C236027E01B4B1C4C236023E0E3
:100D6000184B5B6803F47010164B5B6803F4803219
:100D7000022303EB904022B9154B4343134C2360ED
:100D80000DE0104B5B6803F4003323B1104B434379
:100D90000E4C236003E00C4B43430C4C236003E0F8
:100DA000094B0A4C236000BF00BF064B5B68C3F3CE
:100DB0000313084CE15C054B1B68CB40034C2360DC
:100DC00010BD00000010024000127A000000002058
:100DD00000093D000400002010B51348006840F0F1
:100DE00001001149086008464068104908400E4952
:100DF0004860084600680E4908400B4908600846EC
:100E0000006820F4802008600846406820F4FE0056
:100E100048604FF41F008860FFF70FFF4FF000603D
:100E20000449086010BD0000001002400000FFF8F7
:100E3000FFFFF6FE08ED00E030B58BB005460C462E
:100E400001210846FFF726FD1248FFF7D1F91248A5
:100E5000009001950020029003940490802005905A
:100E600000200690079020200890000209900020A2
:100E70000A9069460748FFF77BFA0122402106489D
:100E8000001F00F0C2F801210248FFF7A5F90BB0DE
:100E900030BD0000300002400448004030B58BB047
:100EA00005460C4601210846FFF7F4FC1148009066
:100EB000019510200290039400200490802005905A
:100EC00000200690079008904FF4005009900020F1
:100ED0000A9069460848FFF74BFA0122802105482D
:100EE000001F00F092F801210348FFF775F90BB0DD
:100EF00030BD0000044800401C00024010B540F224
:100F000025510D4800F0E5F8A0B10B4800F09CF920
:100F1000044600BF8021084800F0CEF80028F9D030
:100F20002146054800F0A4F940F22551024800F09E
:100F300051F800BF10BD00000048004000B585B06A
:100F400001218804FFF7B6FC01210820FFF7D2FC3D
:100F50004FF48060ADF8100018208DF813000320C6
:100F60008DF8120004A91948FFF732FB4FF4006016
:100F7000ADF8100004208DF8130004A91348FFF702
:100F800027FB134800F04AF84FF4E13000900020AE
:100F9000ADF80400ADF80600ADF808000C20ADF87F
:100FA0000A000020ADF80C006946094800F0E0F89E
:100FB000FFF75AFC0121064800F01BF8012240F21D
:100FC0002551034800F0AFF805B000BD000C01400A
:100FD0000048004010B50022002340F66A14A142E8
:100FE00000D100BF0A1201249440A3B2DC43048064
:100FF00010BD21B1828942F40052828104E08289CD
:101000004DF6FF731A40828170471AB1838A0B43F1
:10101000838202E0838A8B438382704710B5044643
:101020002048844209D101218803FFF773FC002185
:101030004FF48040FFF76EFC32E01B48844209D138
:1010400001214804FFF746FC00214FF40030FFF770
:1010500041FC25E01548844209D101218804FFF7AD
:1010600039FC00214FF48020FFF734FC18E01048D1
:10107000844209D10121C804FFF72CFC00214FF460
:101080000020FFF727FC0BE00A48844208D1012129
:101090000805FFF71FFC00214FF48010FFF71AFC32
:1010A00010BD0000003801400044004000480040EE
:1010B000004C00400050004002460020B1F5007F87
:1010C00000D100BF13880B400BB1012000E00020CD
:1010D000704770B50246002400230025002040F62A
:1010E0006A16B14200D100BFC1F3421501F01F03DF
:1010F000012606FA03F3012D02D19689334006E05A
:10110000022D02D1168A334001E0968A33400C1238
:10111000012606FA04F41688344013B10CB10120FC
:1011200000E0002070BDF0B5034600240026002535
:10113000002040F66A17B94200D100BF1846C1F33B
:10114000421401F01F06012707FA06F5012C01D110
:101150000C3004E0022C01D1103000E014301AB140
:1011600007682F43076002E00768AF430760F0BDE0
:101170002DE9F04786B005460E460024A24600BF82
:10118000A1460027B08900B100BF2F462C8A4CF63B
:10119000FF700440F08804432C82AC894EF6F310B3
:1011A0000440B08831890843718908430443AC8105
:1011B000AC8A4FF6FF400440B0890443AC8201A8DA
:1011C000FFF7DEFB1F48874202D1DDF810A001E0E7
:1011D000DDF80CA0A88900F4004040B10AEBCA0079
:1011E00000EB0A1031684900B0FBF1F807E00AEBA8
:1011F000CA0000EB0A1031688900B0FBF1F86420E6
:10120000B8FBF0F004012009642101FB1089A889D2
:1012100000F4004040B1322000EBC900B0FBF1F017
:1012200000F00700044308E0322000EB09106421BD
:10123000B0FBF1F000F00F0004432C8106B0BDE8D4
:10124000F08700000038014001468888C0F308009C
:10125000704770B504460D4600BF80212046FFF759
:101260002BFF0028F9D02946204600F001F870BD78
:10127000C1F308028280704770B505460C460BE04A
:1012800000BF80212846FFF717FF0028F9D02178FA
:101290002846FFF7DEFF641C20780028F0D10D21DE
:1012A0002846FFF7D6FF0A212846FFF7D2FF70BD78
:1012B00000BFFEE702E008C8121F08C1002AFAD1E9
:1012C00070477047002001E001C1121F002AFBD1C6
:1012D000704700004FF4E010FFF766FCFFF768F876
:1012E000FFF728FAFEF752FFFFF702FAFFF74CFA72
:1012F000FFF724FE20A12548FFF7BEFFFFF704F902
:101300004FF47A712248FFF797FD33E021480078C7
:10131000E0B100201F490870182529461E48FFF734
:10132000BDFD8020FFF70EF830B11CA11748FFF774
:10133000A3FF8020FEF742FF00BF2020FFF702F846
:101340000028FAD02020FEF739FF00BF1948FEF729
:10135000F5FFC0F57A7464B117A10C48FFF78CFF54
:101360000B4801780948FFF783FF17A10748FFF7EB
:1013700083FF00BFCAE7000054657374696E67207D
:10138000444D412E2E2E0D0A000000000048004062
:101390004C0000202800002030000020444D412057
:1013A0007472616E73666572206572726F72210D60
:1013B0000A0000003000024052656365697665648A
:1013C00020646174613A20000D0A0000EC130008EB
:1013D000000000204C000000B4120008381400087F
:1013E0004C000020EC070000C412000800A24A04D0
:1013F00000000000000000000102030406070809C5
:1014000000000000010203040102030406070809AA
:1014100002040608000000000000000048656C6C33
:101420006F2066726F6D2055534152543320444DE6
:0814300041210D0A000000003B
:0400000508000131BD
:00000001FF
