:020000040800F2
:100000003004002045010008350B0008670A00088D
:10001000310B00080D070008031400080000000061
:100020000000000000000000000000007D0F00083C
:100030001107000800000000370C000869100008D4
:100040005F0100085F0100085F0100085F01000810
:100050005F0100085F0100085F0100085F01000800
:100060005F010008950700085F0100085F010008B4
:100070005F0100085F0100085F0100085F010008E0
:100080005F0100085F0100085F0100085F010008D0
:100090005F0100085F0100085F010008B107000868
:1000A0005F0100085F0100085F0100085F010008B0
:1000B0005F0100085F0100085F0100085F010008A0
:1000C0005F0100085F0100085F0100085F01000890
:1000D0005F0100085F0100085F0100085F01000880
:1000E0005F0100085F0100085F0100085F01000870
:1000F0005F0100085F0100085F0100085F01000860
:100100005F0100085F0100085F0100085F0100084F
:100110005F0100085F0100085F0100085F0100083F
:100120005F0100085F0100085F0100085F0100082F
:10013000DFF80CD000F02AFA004800470D1D000837
:10014000300400200648804706480047FEE7FEE7E7
:10015000FEE7FEE7FEE7FEE7FEE7FEE7FEE7FEE777
:100160001D1100083101000800F0004230F000408D
:100170000AD0C10D01F56071C0F3160042EA0151C9
:10018000C20840071143704700200146704730B550
:100190000B46014600202022012409E021FA02F545
:1001A0009D4205D303FA02F5491B04FA02F52844DF
:1001B000151EA2F10102F1DC30BD2DE9F05F05460C
:1001C000002092469B4688460646814640241BE016
:1001D000284641464746224600F0F9F953465A461A
:1001E000C01A914110D311461846224600F0E0F99A
:1001F0002D1A67EB01084F4622460120002100F02E
:10020000D7F917EB00094E41201EA4F10104DFDCF1
:10021000484631462A464346BDE8F09F2DE9FE4F49
:10022000804681EA0300C00F0C46009021F0004197
:1002300023F00045B8EB0200A94105D24046214613
:1002400090461C460B46024623F00040104347D020
:10025000270DC7F30A00C3F30A510290401A019018
:1002600040286BDAC3F3130040F4801B00989246D9
:1002700020B10023D2EB030A63EB0B0B0198594624
:10028000C0F14002504600F093F906460D46504634
:100290005946019A00F0ABF910EB080061410024C7
:1002A00087EA115284EAE7731A4340D0009A62B396
:1002B000019A012A4FEA075215DC001B61EB02018B
:1002C0004FF0004202EA0752CDE90042001C41F51E
:1002D000801132462B4600F0ABF903B0BDE8F08F39
:1002E00040462146F9E7001B61EB0201001C41F585
:1002F000801300185B412018A2F5001747EB03019B
:1003000040EAD570B6196D4111E06D084FEA360626
:1003100045EAC0754FEA0752001B61EB0201001C61
:1003200041F5801149084FEA300000195141324629
:100330002B4603B0BDE8F04F00F06BB900980122E6
:1003400040000023D0EB020263EBE07300982146EB
:100350004FEAE074B8EB000061EB0401E9E783F0D9
:1003600000435BE781F0004158E72DE9FE4F81EA49
:10037000030404F0004421F0004100944FF0000B0E
:1003800023F0004350EA01045ED052EA03045BD03C
:10039000C3F30A54C1F30A552C44A4F2F334019474
:1003A000A0FB0254C1F3130141F48011C3F3130302
:1003B00043F4801301FB024400FB034E840A970AB6
:1003C00044EA815447EA8357A4FB076802958D0AE3
:1003D00005FB07854FEA932C04FB0C542705029D6F
:1003E0004FEA065847EA1637B5EB08056EEB070CDF
:1003F000870E920E47EA811742EA8312A7FB020199
:10040000B6EB0B0164EB00042B0D43EA0C335E18D2
:1004100044EB1C50DA465146E7FB0201C5F31304D6
:100420004FEA0B3343EA14534FEA0432019C43EA88
:100430000603A4F10C040294009CCDE900B400F082
:10044000F7F803B0BDE8F08F00200146F9E72DE989
:10045000F04D81EA030404F0004B21F000451446FE
:100460004FF0000A23F0004150EA050220D054EA80
:1004700001021DD0C5F30A570246C5F31303C1F3A9
:100480001300C1F30A5640F4801543F48013A7EB20
:100490000608101BD64608F2FD3873EB050002D3A0
:1004A00008F1010801E092185B41B8F1000F03DA8E
:1004B00000200146BDE8F08D00204FF48011064673
:1004C00084460EE0171B73EB050705D3121B63EB85
:1004D000050306434CEA010C49084FEA3000921824
:1004E0005B4150EA0107EDD152EA030012D082EAE3
:1004F000040083EA0501084305D0101BAB4106D276
:100500000122002306E000224FF0004302E06FF0DA
:10051000010253101AEB06004CEB085110EB0A00D5
:1005200041EB0B01BDE8F04D00F073B8C1F30A5286
:10053000C1F3130140F2FF3341F480119A4202DA11
:1005400000200146704740F233439A42A2F2334200
:1005500002DC524200F03BB800F02AB830B5041E6D
:1005600071F1000404DB4FF00044404264EB0101F0
:10057000141E73F1000405DB1C464FF00043524289
:1005800063EB0403994208BF904230BD064C074D0F
:1005900006E0E06840F0010394E807009847103453
:1005A000AC42F6D3FFF7C8FD641D0008841D0008A7
:1005B000202A04DB203A00FA02F100207047914023
:1005C000C2F1200320FA03F3194390407047202A18
:1005D00004DB203A21FA02F00021704721FA02F3ED
:1005E000D040C2F120029140084319467047202AAA
:1005F00006DBCB17203A41FA02F043EAE07306E04B
:1006000041FA02F3D040C2F120029140084319465A
:10061000704710B5141E73F1000408DA401C41F154
:10062000000192185B411A4301D120F0010010BD76
:100630002DE9F04D92469B4611B1B1FA81F202E0EC
:10064000B0FA80F220329046FFF7B2FF04460F4620
:1006500040EA0A0041EA0B0153465A46084313D0C8
:10066000114653EA010019D0C8F140025046FFF785
:10067000AEFF05460E46504659464246FFF798FFE4
:10068000084305D0012004E020463946BDE8F08D3E
:100690000020054346EAE0762C4337430A98630579
:1006A000E40AA0EB08000022FD0A44EA47540A309D
:1006B00002D500200146E9E7010510196941DDE98D
:1006C000084500196941BDE8F04DA2E708B50121D0
:1006D000082000F0C1FA4FF48070ADF8000010203F
:1006E0008DF8030001208DF802006946014800F0F2
:1006F0002DF908BD000C014010B54FF4807102487F
:1007000000F0AFF910BD0000000C014000BFFEE793
:100710007047000030B5164800684FF47A72B0FB9D
:10072000F2F1B1F1807F01D301201DE021F07F4083
:10073000401E4FF0E022506150170F22002807DAC8
:1007400013071D0E0B4B00F00F04241F1D5503E073
:1007500013071C0E084B1C5400BF00204FF0E02272
:10076000906107201061002008B100BFFEE730BD96
:100770000000002018ED00E000E400E0044A1168E9
:1007800000BF034A1268521A8242FAD3704700002F
:100790002800002010B5082000F016F838B10A2013
:1007A000FFF7ECFFFFF7A8FF082000F007F810BDE7
:1007B00010B54FF4807000F007F810BD01490860D3
:1007C0007047000014040140014600200022074B3E
:1007D0001B6803EA0102054B14331B680B4013B17D
:1007E0000AB1012000E00020704700000004014031
:1007F000002123498279002A3AD00A461268036808
:100800009A430B461A600A1D126803689A430B1D2F
:100810001A60027911440A6803681A430A60184A88
:100820000832126803689A43154B08331A601A1D80
:10083000126803689A43124B0C331A604279102AEB
:100840000ED11A1F126803681A430D4B08331A6041
:100850001A1D126803681A43094B0C331A600DE025
:100860000749427911440A6803681A430A6005E09F
:10087000027911440A6803689A430A6070470000CD
:10088000000401400EB50820ADF8080048208DF89E
:100890000B0001208DF80A0002A90E4800F056F85E
:1008A0000121084600F0D8F90321042000F02EF8B9
:1008B00000F07AF90820009000208DF804000C2048
:1008C0008DF8050001208DF806006846FFF790FFBF
:1008D0000EBD0000001801400549096821F0100113
:1008E000034A116011460968014311607047000016
:1008F0000020024001460020034A106800F0380042
:1009000008431060704700000020024030B500220C
:100910008B071C0F0F2303FA04F20B4B8C1053F8B8
:1009200024309343084C8D1044F8253023468C1016
:1009300053F824308C07240F00FA04F42343024CAC
:100940008D1044F8253030BD080001402DE9F041FC
:10095000024600250026002000230024002791F8ED
:1009600003C00CF00F0591F803C00CF0100CBCF1A3
:10097000000F03D091F802C04CEA050591F800C0C1
:10098000BCF1000F31D0146800202BE04FF0010CB7
:100990000CFA00F3B1F800C00CEA03069E4220D125
:1009A00083004FF00F0C0CFA03F7BC4305FA03FC6D
:1009B0004CEA040491F803C0BCF1280F06D14FF0B3
:1009C000010C0CFA00FCC2F814C00AE091F803C054
:1009D000BCF1480F05D14FF0010C0CFA00FCC2F835
:1009E00010C0401C0828D1D31460B1F800C0BCF17D
:1009F000FF0F34DD546800202EE000F1080C4FF0AA
:100A0000010808FA0CF3B1F800C00CEA03069E4294
:100A100021D183004FF00F0C0CFA03F7BC4305FA09
:100A200003FC4CEA040491F803C0BCF1280F05D183
:100A300000F1080C08FA0CF8C2F8148091F803C011
:100A4000BCF1480F07D100F1080C4FF0010808FA7B
:100A50000CF8C2F81080401C0828CED35460BDE8C2
:100A6000F0810161704700BFFEE7000008B5012179
:100A7000042000F0F1F80121402000F0EDF8012001
:100A8000ADF8000028208DF8030069460648FFF7FE
:100A90005DFF1820ADF8000048208DF8030069467E
:100AA0000248FFF753FF08BD00080140001801404D
:100AB00008B50121402000F0CFF80121082000F006
:100AC000CBF82020ADF8000010208DF803000120A5
:100AD0008DF8020069460948FFF738FF2020ADF87D
:100AE000000069460648FFF731FF20210448FFF760
:100AF000B8FF20210148FFF7B4FF08BD00180140EE
:100B0000000C014008B50121802000F0A5F84FF449
:100B10008070ADF8000004208DF8030001208DF8EE
:100B2000020069460148FFF711FF08BD001C0140A3
:100B300000BFFEE77047000070B5002100230F22C0
:100B4000C47804B3154C246804F4E064C4F5E0648C
:100B5000210AC1F10403CA40447804FA03F18478FD
:100B60001440214309010E4C0678A155047804F085
:100B70001F050124AC4005786D11AD0005F1E0259D
:100B8000C5F8004109E0047804F01F050124AC40D9
:100B9000044D0678761145F8264070BD0CED00E056
:100BA00000E400E080E100E008B54FF4C06000F030
:100BB0000FF809208DF8000001208DF801008DF854
:100BC00002008DF803006846FFF7B6FF08BD00007D
:100BD00002490143024A1160704700000000FA0513
:100BE0000CED00E008B54FF4A060FFF7F1FF252001
:100BF0008DF8000001208DF8010000208DF8020022
:100C000001208DF803006846FFF796FF08BD08B580
:100C10004FF4A060FFF7DCFF27208DF800000020D4
:100C20008DF8010001208DF802008DF80300684660
:100C3000FFF782FF08BD704729B1064AD269024317
:100C4000044BDA6104E0034AD2698243014BDA6162
:100C5000704700000010024029B1064A9269024321
:100C6000044B9A6104E0034A92698243014B9A6102
:100C700070470000001002400F48006840F001007B
:100C80000D490860084640680C4908400A49486018
:100C9000084600680A490840074908600846006895
:100CA00020F4802008600846406820F4FE00486078
:100CB0004FF41F0088607047001002400000FFF8EA
:100CC000FFFFF6FE30B500210022002400232D4D49
:100CD0006D6805F00C0121B1042905D0082923D144
:100CE00005E0294D056022E0274D05601FE0254DF8
:100CF0006D6805F47012234D6D6805F4803402258B
:100D000005EB92421CB9214D554305600BE01D4D8A
:100D10006D6805F400351DB11C4D5543056002E0BA
:100D2000194D5543056002E0174D056000BF00BF37
:100D3000144D6D6805F0F0010909154D6B5C0568EF
:100D4000DD4045600F4D6D6805F4E061090A104D06
:100D50006B5C4568DD4085600A4D6D6805F4605147
:100D6000C90A0B4D6B5C4568DD40C560054D6D687B
:100D700005F44041890B074D6B5CC568B5FBF3F585
:100D8000056130BD0010024000127A0000093D00EC
:100D9000140000202400002010B50146002200238A
:100DA00000204A11012A02D1094C236806E0022AD8
:100DB00002D1074C236A01E0054C636A01F01F026F
:100DC000012494401C400CB1012000E0002010BD23
:100DD0000010024001460020034A506820F0F00055
:100DE0000843506070470000001002401149096834
:100DF00021F480310F4A11601146096821F48021E5
:100E00001160B0F5803F03D0B0F5802F0ED106E021
:100E10000849096841F48031064A116007E0054934
:100E2000096841F4A021034A116000E000BF00BF3F
:100E30007047000000100240014908607047000040
:100E40000000424201460020034A506820F4E0605E
:100E50000843506070470000001002400146002027
:100E6000034A506820F4605040EAC1005060704767
:100E7000001002400149086670470000000042422D
:100E800002460020044B586820F47C1042EA01031B
:100E90001843014B58607047001002400146002083
:100EA000034A506820F00300084350607047000078
:100EB0000010024038B5002000900024002500BF3B
:100EC0003120FFF769FF05460098401C009000980C
:100ED000B0F5A06F01D0002DF2D03120FFF75CFFFC
:100EE00008B1012400E00024204638BD70B5044656
:100EF000FFF7C2FE4FF48030FFF778FFFFF7DAFF0D
:100F00000546012D25D11020FFF7E6FC0220FFF752
:100F1000F1FC21462804FFF7B3FF0120FFF7AAFFE9
:100F200000BF3920FFF738FF0028FAD00020FFF774
:100F300051FF4FF48060FFF785FF0020FFF78EFF21
:100F40000220FFF7ABFF00F097F80020FFF774FFD7
:100F50000FE00020FFF7A2FF0020FFF73BFF00207B
:100F6000FFF770FF0020FFF779FF00F085F800BF62
:100F7000FEE701214020FFF76FFE70BD704710B5FE
:100F800000F002F810BD00000CB5002001900090A8
:100F90003348006840F480303149086000BF304871
:100FA000006800F4003000900198401C0190009807
:100FB00018B90198B0F5A06FF1D12948006800F484
:100FC000003010B10120009001E000200090009856
:100FD000012843D12348006840F0100021490860EF
:100FE0000846006820F0030008600846006840F0EA
:100FF000020008601A48406819494860084640687D
:1010000048600846406840F4806048600846406890
:1010100020F47C1048600846406840F4E8104860BE
:101020000846006840F08070086000BF0C48006807
:1010300000F000700028F9D00948406820F0030053
:10104000074948600846406840F00200486000BF19
:101050000348406800F00C000828F9D10CBD0000DE
:10106000001002400020024002480068401C014974
:10107000086070472800002010B5002100200022E1
:10108000214B5B6803F00C0121B1042906D008292B
:1010900028D107E01D4B1E4C236027E01B4B1C4C46
:1010A000236023E0184B5B6803F47010164B5B68F9
:1010B00003F48032022303EB904022B9154B4343E3
:1010C000134C23600DE0104B5B6803F4003323B135
:1010D000104B43430E4C236003E00C4B43430C4C3A
:1010E000236003E0094B0A4C236000BF00BF064B9E
:1010F0005B68C3F30313084CE15C054B1B68CB40F2
:10110000034C236010BD00000010024000127A0062
:101110000000002000093D000400002010B5134825
:10112000006840F001001149086008464068104915
:1011300008400E494860084600680E4908400B49BF
:1011400008600846006820F480200860084640686F
:1011500020F4FE0048604FF41F008860FFF70FFF87
:101160004FF000600449086010BD0000001002400C
:101170000000FFF8FFFFF6FE08ED00E000B585B0C7
:10118000012144F20400FFF767FD4FF40070ADF851
:10119000100018208DF8130003208DF8120004A908
:1011A0001448FFF7D3FB4FF48060ADF81000042023
:1011B0008DF8130004A90F48FFF7C8FB4FF4E13086
:1011C00000900020ADF80400ADF80600ADF808006E
:1011D0000C20ADF80A000020ADF80C006946064866
:1011E00000F06AF8FFF7FEFC0121034800F04AF81E
:1011F00005B000BD000801400038014000B585B0D1
:1012000001218804FFF718FD01210820FFF724FDC4
:101210004FF48060ADF8100018208DF81300032003
:101220008DF8120004A91548FFF790FB4FF40060F9
:10123000ADF8100004208DF8130004A90F48FFF743
:1012400085FB4FF4E13000900020ADF80400ADF8CC
:101250000600ADF808000C20ADF80A000020ADF83B
:101260000C006946064800F027F8FFF7D0FC012182
:10127000034800F007F805B000BD0000000C014075
:101280000048004021B1828942F40052828104E08A
:1012900082894DF6FF731A40828170470246002012
:1012A000B1F5007F00D100BF13880B400BB10120C6
:1012B00000E00020704700002DE9F04786B00546A9
:1012C0000E460024A24600BFA1460027B08900B107
:1012D00000BF2F462C8A4CF6FF700440F088044370
:1012E0002C82AC894EF6F3100440B0883189084353
:1012F000718908430443AC81AC8A4FF6FF40044037
:10130000B0890443AC8201A8FFF7DCFC1F48874288
:1013100002D1DDF810A001E0DDF80CA0A88900F4EE
:10132000004040B10AEBCA0000EB0A1031684900E6
:10133000B0FBF1F807E00AEBCA0000EB0A103168D5
:101340008900B0FBF1F86420B8FBF0F0040120093B
:10135000642101FB1089A88900F4004040B13220CB
:1013600000EBC900B0FBF1F000F00700044308E017
:10137000322000EB09106421B0FBF1F000F00F0007
:1013800004432C8106B0BDE8F0870000003801401E
:1013900070B504460D4600BF80212046FFF77EFF52
:1013A0000028F9D02946204600F001F870BDC1F3AD
:1013B0000802828070470000F0B585B005460C46F3
:1013C0002046FEF7D1FE064632460B4604A168468B
:1013D00000F01AF86946284600F006F805B0F0BD9E
:1013E000252E35660000000070B505460C4604E069
:1013F00021782846FFF7CCFF641C20780028F7D11D
:1014000070BD00BFFEE700000FB4084B10B504A983
:1014100002AA039800F0DEF8044602A9002000F0BA
:1014200070FC204610BC5DF814FB0000031D000892
:1014300002E008C8121F08C1002AFAD1704770479D
:10144000002001E001C1121F002AFBD170470000FB
:101450002DE9FF5F82B00021DDE90430020DDDF8E7
:1014600040B0034318D044F61050A2F2FF3242437A
:101470001514119801281FD0A5EB0B00401C5FEA42
:10148000000A4FF000064E4FDFF83891B046504644
:1014900015D5CAF1000413E0119801244AA30128CC
:1014A00001D16FEA0B010298119AC0E90031C0E93D
:1014B000024206B0BDE8F09FCBF10000DFE7044632
:1014C0000021404A491842EB0450CDE9001012E0D7
:1014D000E00707D032463B4640464946FEF745FF07
:1014E0008046894632463B4610461946FEF73DFF88
:1014F00006460F466410002CEAD1DDE90401DDE95F
:101500000023BAF1000F06DAFEF72FFF42464B46E2
:10151000FEF72BFF05E0FEF79AFF42464B46FEF72B
:1015200096FF04460E460022284BFFF717F803D813
:101530004FF0FF30014607E00022254B20463146A0
:10154000FEF76CFEFEF7F2FF102409E0002C0ADB28
:101550000A220023FEF731FE039B30321A55641E27
:1015600050EA0102F2D1641C039AC4F1110314443D
:10157000119A012A03D0012208430DD10AE0084341
:1015800004D000204FF0110B119072E7A3EB0B0574
:101590006D1E0DE05B4504DD4FF0000205F1010515
:1015A00004E003DA4FF00002A5F10105002AECD0B7
:1015B00002981199C0E90231C0E9004579E70000BD
:1015C000000014400000F03F300000000000F04335
:1015D0000000E03F2DE9FF4F95B09B468946064647
:1015E00000250FE2252877D100242746F84A01215B
:1015F000059400E0044316F8013F203B01FA03F094
:101600001042F7D130782A2811D06FF02F033078AC
:10161000A0F13002092A16D8059A44F0020402EB20
:10162000820203EB42021044761C0590EFE759F862
:10163000042B0592002A03DA504244F4005405902A
:1016400044F00204761C30782E2816D116F8010FCB
:1016500044F004042A280DD06FF02F023078A0F156
:101660003003092B09D807EB870302EB4303C718A4
:10167000761CF3E759F8047B761C30786C280FD081
:1016800006DC4C2817D068280DD06A2814D104E055
:10169000742810D07A280FD10DE044F400140AE029
:1016A00044F4801401E044F440147278824202D180
:1016B00004F58014761C761C307866280BD013DC79
:1016C000582877D009DC002875D04528F6D0462860
:1016D000F4D047281AD19DE118E0632835D064285A
:1016E00079D0652812D195E1702873D008DC67287D
:1016F000F1D069286FD06E280DD06F2806D1B5E0E3
:1017000073282CD0752875D0782874D05A4617992C
:1017100090476D1C75E1C4F30250022809D00328DC
:101720000DD0D9F8001004280DD00D6009F104097E
:1017300067E1D9F80010EA17C1E90052F6E7D9F8D5
:1017400000100D80F2E70D70F0E719F8041B8DF81A
:10175000001000208DF80100EA46012003E059F84E
:1017600004AB4FF0FF3061074FF0000102D40DE0F1
:1017700008F101018846B9420FDA8045F8DB1AF812
:1017800008100029F4D108E008F1010188468142DF
:10179000FADB1AF808100029F6D105985B46A0EB91
:1017A000080721463846179A00F094FA284400EBBF
:1017B000080507E04DE029E10DE01AF8010B5A4653
:1017C00017999047B8F10108F7D25B462146384691
:1017D000179A13E142E00A220092C4F302524FF03A
:1017E000000A022A08D059F804CB032A4FEAEC7108
:1017F0000AD00DE029E02AE009F1070121F00702F3
:10180000F2E802C1914609E00FFA8CFC4FEAEC7154
:10181000042A03D14FFA8CFC4FEAEC71002907DA55
:101820000A460021DCF1000C61EB02012D2202E0EE
:10183000220504D52B228DF80420012203E0E207C3
:1018400001D02022F7E7904659E00A2102E0102259
:101850000DE010214FF0000A00910BE010224FF034
:10186000000A44F004040827009203E008224FF025
:10187000000A0092C4F30252022A05D059F804CBA0
:101880000021032A08D009E009F1070121F007022D
:10189000F2E802C1914605E01FFA8CFC042A01D14E
:1018A0000CF0FF0C4FF00008220728D5702806D056
:1018B000009B83F0100353EA0A0305D00EE0402298
:1018C0008DF80420012208E05CEA010206D03022F3
:1018D0008DF804208DF8050002229046009B83F0CD
:1018E000080353EA0A030AD15CEA010201D1620744
:1018F00005D530228DF804204FF001087F1E5828AE
:1019000004D034A003900EA802900DE036A0F9E7B1
:1019100053466046009AFEF750FC84460398825C6A
:101920000298401E029002705CEA0100F0D1029819
:1019300006A9081A00F1200A600702D524F48034B1
:1019400000E00127574502DDA7EB0A0000E0002078
:1019500000EB0A01009005984144401A0590E0030D
:1019600006D45B462146179A059800F0B3F9054462
:10197000002706E001A85A46C05D179990476D1CE4
:101980007F1C4745F6DBE0030CD55B462146179AE2
:10199000059800F09FF9054404E030205A46179955
:1019A00090476D1C0099481E00900029F5DC08E066
:1019B000029802995A460078491C0291179990475B
:1019C0006D1CBAF10001AAF1010AF1DC65E1000029
:1019D0000928010030313233343536373839616205
:1019E00063646566000000003031323334353637C9
:1019F00038394142434445460000000000F058F9A0
:101A00000544761C307800287FF4ECAD19B02846E8
:101A1000BDE8F08F620700D4062709F1070222F023
:101A2000070CFCE80223E14603F000485FEA080CDB
:101A300002D00FF2702C0DE05FEA045C02D50FF2C9
:101A4000682C07E05FEAC47C02D00FF2602C01E052
:101A5000AFF2700C4FF0FF3823F00043CDF850C0C8
:101A600065280CD006DC452809D046281DD047281B
:101A70003DD13DE0662818D067287ED138E00021AE
:101A8000112F01DB112000E0781CCDE9000106A92F
:101A90000EA8FFF7DDFCDDE90F010E9A039100218E
:101AA000009207F1010A04914DE04FF000400097C9
:101AB000CDE9011006A90EA8FFF7CAFCDDE90F0267
:101AC00003920E9B11990022DDF80CA00093049262
:101AD00011B9791C00EB010AB7EB0A0004D4C0F17C
:101AE000FF3007F1010A0490AAEB0700019044E0DF
:101AF000012F00DA01270021112F01DD112000E064
:101B00003846CDE9000106A90EA8FFF7A1FCDDE9E2
:101B10000F010E9A0391002104910092BA46210709
:101B20000CD40399514500DA8A46BAF1010F05DD5C
:101B3000009AAAF10101515C302908D0B84202DABA
:101B400010F1040F06DA0121CDE9011015E0AAF128
:101B50000101E9E7002805DC049901440491AAEB9E
:101B6000000102E0411C514500DD8A460499401AFB
:101B7000401C01904FF000400290200704D40198CF
:101B8000504501DBCDF8048000208DF84F0002980D
:101B90000DF14F07B0F1004F25D02B200E90029889
:101BA0004FF0020800280CDA404202902D200E90DF
:101BB00007E00A210298FEF7EAFA3031029007F8AE
:101BC000011DB8F10001A8F10108F2DC029800281B
:101BD000EFD1791E0E980870307800F0200040F0A8
:101BE000450007F8020D12A8C01B00F10708149861
:101BF000007800B1012000EB0A01019801EBE071CF
:101C000005984144401A401E0590E00306D45B4607
:101C10002146179A059800F05DF80544149800785D
:101C200018B15A46179990476D1CE00324D55B46BE
:101C30002146179A059800F04DF805441CE00498D9
:101C4000002807DBDDE90301884203DD0098405CE2
:101C5000179901E0179930205A469047049805F1EA
:101C60000105401C04900198401E019004D12E20D3
:101C70005A46179990476D1CBAF10001AAF1010A62
:101C8000DDDC05E017F8010B5A46179990476D1CEB
:101C9000B8F10001A8F10108F4DC5B462146179A6F
:101CA0000598ABE62D0000002B000000200000008E
:101CB0002DE9F041044600251E461746880404D449
:101CC00005E039462020B0476D1C641EF9D5284632
:101CD000BDE8F0812DE9F041044600251E469046FE
:101CE000C80301D5302700E02027880404D505E08B
:101CF00041463846B0476D1C641EF9D52846BDE8FC
:101D0000F0810A68531C0B60107070474FF4E010AC
:101D1000FFF7ECF8FEF7FEFCFEF7CAFEFEF7D6FC76
:101D2000FEF7A4FEFEF7EEFEFEF7ACFDFFF726FA87
:101D3000FFF764FA04A10948FFF756FB0849074872
:101D4000FFF73AFB00BFFEE777616E676D656E6770
:101D50007A68616F3636360D0A0000000048004090
:101D6000DA0F4940841D0008000000202C0000000C
:101D700030140008B01D00082C00002004040000EE
:101D80004014000800A24A04000000000000000007
:101D90000102030406070809000000000102030411
:101DA00001020304060708090204060800000000F7
:0400000508000131BD
:00000001FF
