:020000040800F2
:100000004805002045010008F50E00085D0C0008B9
:10001000F10E0008D5060008B11A00080000000023
:100020000000000000000000000000007513000840
:10003000C108000800000000CD0F000819150008D5
:100040005F0100085F0100085F0100085F01000810
:100050005F0100085F0100085F0100085F01000800
:100060005F010008410900085F0100085F01000806
:100070005F0100085F0100085F0100085F010008E0
:100080005F0100085F0100085F0100085F010008D0
:100090005F0100085F0100085F0100089109000886
:1000A0005F0100085F0100085F0100085F010008B0
:1000B0005F0100085F0100085F0100085F010008A0
:1000C0005F0100085F0100085F0100085F01000890
:1000D0005F0100085F0100085F010008FD160008CD
:1000E0005F0100085F0100085F0100085F01000870
:1000F0005F0100085F0100085F0100085F01000860
:100100005F0100085F0100085F0100085F0100084F
:100110005F0100085F0100085F0100085F0100083F
:100120005F0100085F0100085F0100085F0100082F
:10013000DFF80CD000F018FA00480047CD23000883
:10014000480500200648804706480047FEE7FEE7CE
:10015000FEE7FEE7FEE7FEE7FEE7FEE7FEE7FEE777
:10016000CD1500083101000830B50B4601460020CE
:100170002022012409E021FA02F59D4205D303FA69
:1001800002F5491B04FA02F52844151EA2F10102EA
:10019000F1DC30BD2DE9F05F0546002092469B461C
:1001A00088460646814640241BE02846414647468D
:1001B000224600F0FAF953465A46C01A914110D32C
:1001C00011461846224600F0E1F92D1A67EB0108A6
:1001D0004F4622460120002100F0D8F917EB000914
:1001E0004E41201EA4F10104DFDC484631462A4678
:1001F0004346BDE8F09F2DE9FE4F804681EA0300AB
:10020000C00F0C46009021F0004123F00045B8EBF0
:100210000200A94105D24046214690461C460B46A5
:10022000024623F00040104347D0270DC7F30A00D1
:10023000C3F30A510290401A019040286BDAC3F3CD
:10024000130040F4801B0098924620B10023D2EBAB
:10025000030A63EB0B0B01985946C0F1400250466C
:1002600000F094F906460D4650465946019A00F0B2
:10027000ACF910EB08006141002487EA115284EACE
:10028000E7731A4340D0009A62B3019A012A4FEAF9
:10029000075215DC001B61EB02014FF0004202EA3D
:1002A0000752CDE90042001C41F5801132462B4631
:1002B00000F0ACF903B0BDE8F08F40462146F9E705
:1002C000001B61EB0201001C41F5801300185B412B
:1002D0002018A2F5001747EB030140EAD570B619C4
:1002E0006D4111E06D084FEA360645EAC0754FEAE8
:1002F0000752001B61EB0201001C41F58011490807
:100300004FEA30000019514132462B4603B0BDE898
:10031000F04F00F06CB90098012240000023D0EBB0
:10032000020263EBE073009821464FEAE074B8EBF9
:10033000000061EB0401E9E783F000435BE781F033
:10034000004158E72DE9FE4F81EA030404F0004420
:1003500021F0004100944FF0000B23F0004350EADD
:1003600001045ED052EA03045BD0C3F30A54C1F324
:100370000A552C44A4F2F3340194A0FB0254C1F3B7
:10038000130141F48011C3F3130343F4801301FB01
:10039000024400FB034E840A970A44EA815447EA68
:1003A0008357A4FB076802958D0A05FB07854FEA72
:1003B000932C04FB0C542705029D4FEA065847EA8C
:1003C0001637B5EB08056EEB070C870E920E47EA61
:1003D000811742EA8312A7FB0201B6EB0B0164EB23
:1003E00000042B0D43EA0C335E1844EB1C50DA4634
:1003F0005146E7FB0201C5F313044FEA0B3343EA0E
:1004000014534FEA0432019C43EA0603A4F10C049E
:100410000294009CCDE900B400F0F8F803B0BDE808
:10042000F08F00200146F9E72DE9F04D81EA030441
:1004300004F0004B21F0004514464FF0000A23F071
:10044000004150EA050220D054EA01021DD0C5F354
:100450000A570246C5F31303C1F31300C1F30A564A
:1004600040F4801543F48013A7EB0608101BD64612
:1004700008F2FD3873EB050002D308F1010801E032
:1004800092185B41B8F1000F03DA00200146BDE885
:10049000F08D00204FF48011064684460EE0171BB5
:1004A00073EB050705D3121B63EB050306434CEA08
:1004B000010C49084FEA300092185B4150EA0107ED
:1004C000EDD152EA030012D082EA040083EA05016A
:1004D000084305D0101BAB4106D20122002306E0E1
:1004E00000224FF0004302E06FF0010253101AEBBC
:1004F00006004CEB085110EB0A0041EB0B01BDE884
:10050000F04D00F074B8C1F30A52C1F3130140F288
:10051000FF3341F480119A4202DA0020014670470D
:1005200040F233439A42A2F2334202DC524200F0DC
:100530003CB800F02BB8000030B5041E71F1000487
:1005400004DB4FF00044404264EB0101141E73F1E0
:10055000000405DB1C464FF00043524263EB0403EA
:10056000994208BF904230BD064C074D06E0E06856
:1005700040F0010394E8070098471034AC42F6D3EA
:10058000FFF7DAFDE424000804250008202A04DB34
:10059000203A00FA02F1002070479140C2F1200396
:1005A00020FA03F3194390407047202A04DB203AD5
:1005B00021FA02F00021704721FA02F3D040C2F183
:1005C00020029140084319467047202A06DBCB17CA
:1005D000203A41FA02F043EAE07306E041FA02F3FE
:1005E000D040C2F12002914008431946704710B52F
:1005F000141E73F1000408DA401C41F10001921846
:100600005B411A4301D120F0010010BD2DE9F04DEE
:1006100092469B4611B1B1FA81F202E0B0FA80F243
:1006200020329046FFF7B2FF04460F4640EA0A0028
:1006300041EA0B0153465A46084313D0114653EA88
:10064000010019D0C8F140025046FFF7AEFF054641
:100650000E46504659464246FFF798FF084305D0DC
:10066000012004E020463946BDE8F08D0020054316
:1006700046EAE0762C4337430A986305E40AA0EB88
:1006800008000022FD0A44EA47540A3002D500203F
:100690000146E9E7010510196941DDE9084500193E
:1006A0006941BDE8F04DA2E708B50121082000F03E
:1006B000BFFC4FF48070ADF8000010208DF80300EF
:1006C00001208DF802006946014800F02FFA08BDAC
:1006D000000C014000BFFEE700F0805111B103495A
:1006E000086001E0024948607047000004040240CD
:1006F0000000024021B1026842F00102026004E001
:1007000002684FF6FE731A400260704701684FF6A8
:10071000FE72114001600021016041608160C16092
:100720004B49884208D14A490839496841F00F01CC
:10073000474A083A51608AE045491431884208D155
:1007400043490839496841F0F001414A083A51608B
:100750007DE03F492831884208D13D490839496840
:1007600041F470613A4A083A516070E038493C31CE
:10077000884208D136490839496841F47041344A01
:10078000083A516063E032495031884208D130491B
:100790000839496841F470212D4A083A516056E001
:1007A0002B496431884208D129490839496841F404
:1007B0007001274A083A516049E02549783188425A
:1007C00008D123490839496841F07061204A083A44
:1007D00051603CE01F49884206D1011F096841F081
:1007E0000F01021F116032E01A491431884208D10A
:1007F0001849091F096841F0F001164A121F1160DB
:1008000025E014492831884208D11249091F096896
:1008100041F470610F4A121F116018E00D493C311C
:10082000884208D10B49091F096841F47041094AFF
:10083000121F11600BE007495031884207D105496A
:10084000091F096841F47021024A121F11607047A4
:10085000080002400804024001460020002201F086
:10086000805313B1054B1A6801E0054B1A6802EA80
:1008700001030BB1012000E000207047000402409A
:100880000000024010B50022026847F6F0739A4358
:100890000C6A8B6823430C6923434C6923438C699E
:1008A0002343CC6923434C6A23438C6A23431A4372
:1008B0000260CB6843600B6883604B68C36010BD07
:1008C0007047000030B5164800684FF47A72B0FBEC
:1008D000F2F1B1F1807F01D301201DE021F07F40D2
:1008E000401E4FF0E022506150170F22002807DA17
:1008F00013071D0E0B4B00F00F04241F1D5503E0C2
:1009000013071C0E084B1C5400BF00204FF0E022C0
:10091000906107201061002008B100BFFEE730BDE4
:100920000000002018ED00E000E400E000EBC00152
:10093000C80000E000BF011EA0F10100FAD170471D
:1009400010B5082000F030F8A8B101F0C5FD04464C
:1009500009480068201A142809D9074804600120B2
:100960000649087000F07AFA05A001F0A3F8082003
:1009700000F014F800BF10BD2C000020280000205B
:100980004B6579312070726573736564210D0A00BF
:1009900010B54FF4807000F007F810BD01490860F1
:1009A0007047000014040140014600200022074B5C
:1009B0001B6803EA0102054B14331B680B4013B19B
:1009C0000AB1012000E0002070470000000401404F
:1009D000002123498279002A3AD00A461268036826
:1009E0009A430B461A600A1D126803689A430B1D4E
:1009F0001A60027911440A6803681A430A60184AA7
:100A00000832126803689A43154B08331A601A1D9E
:100A1000126803689A43124B0C331A604279102A09
:100A20000ED11A1F126803681A430D4B08331A605F
:100A30001A1D126803681A43094B0C331A600DE043
:100A40000749427911440A6803681A430A6005E0BD
:100A5000027911440A6803689A430A6070470000EB
:100A6000000401400EB50820ADF8080048208DF8BC
:100A70000B0001208DF80A0002A90E4800F056F87C
:100A80000121084600F0D4FA0321042000F02EF8DA
:100A900000F06AFA0820009000208DF804000C2075
:100AA0008DF8050001208DF806006846FFF790FFDD
:100AB0000EBD0000001801400549096821F0100131
:100AC000034A116011460968014311607047000034
:100AD0000020024001460020034A106800F0380060
:100AE00008431060704700000020024030B500222B
:100AF0008B071C0F0F2303FA04F20B4B8C1053F8D7
:100B000024309343084C8D1044F8253023468C1034
:100B100053F824308C07240F00FA04F42343024CCA
:100B20008D1044F8253030BD080001402DE9F0411A
:100B3000024600250026002000230024002791F80B
:100B400003C00CF00F0591F803C00CF0100CBCF1C1
:100B5000000F03D091F802C04CEA050591F800C0DF
:100B6000BCF1000F31D0146800202BE04FF0010CD5
:100B70000CFA00F3B1F800C00CEA03069E4220D143
:100B800083004FF00F0C0CFA03F7BC4305FA03FC8B
:100B90004CEA040491F803C0BCF1280F06D14FF0D1
:100BA000010C0CFA00FCC2F814C00AE091F803C072
:100BB000BCF1480F05D14FF0010C0CFA00FCC2F853
:100BC00010C0401C0828D1D31460B1F800C0BCF19B
:100BD000FF0F34DD546800202EE000F1080C4FF0C8
:100BE000010808FA0CF3B1F800C00CEA03069E42B3
:100BF00021D183004FF00F0C0CFA03F7BC4305FA28
:100C000003FC4CEA040491F803C0BCF1280F05D1A1
:100C100000F1080C08FA0CF8C2F8148091F803C02F
:100C2000BCF1480F07D100F1080C4FF0010808FA99
:100C30000CF8C2F81080401C0828CED35460BDE8E0
:100C4000F0810246002093680B400BB1012000E0C8
:100C500000207047416170470161704700BFFEE7A7
:100C6000F8B5054600248020ADF8000048208DF836
:100C7000030069462348FFF759FF002617E0600686
:100C8000040E40211F48FFF7E7FF6420FFF74EFEE8
:100C900080211C48FFF7D5FF08B144F00104402132
:100CA0001848FFF7D7FF6420FFF740FE761C082E98
:100CB000E5DB14208DF8030069461248FFF736FF84
:100CC00025B180210F48FFF7C5FF03E080210D48C3
:100CD000FFF7C2FF6420FFF729FE40210948FFF714
:100CE000BBFF6420FFF722FE40210648FFF7B2FF5A
:100CF0006420FFF71BFE80210248FFF7ADFF20466E
:100D0000F8BD0000000C014070B5044600251FE04E
:100D100004F0800020B180210F48FFF79DFF03E021
:100D200080210D48FFF796FF6420FFF7FFFD40216B
:100D30000948FFF791FF6420FFF7F8FD40210648BE
:100D4000FFF788FF6420FFF7F1FD6006040E6D1CBD
:100D5000082DDDDB70BD0000000C014010B58021C6
:100D60000C48FFF779FF40210A48FFF775FF642020
:100D7000FFF7DCFD80210748FFF76CFF6420FFF7D9
:100D8000D5FD40210348FFF765FF6420FFF7CEFD46
:100D900010BD0000000C014010B580210848FFF78D
:100DA00059FF40210648FFF757FF6420FFF7BEFDBB
:100DB00080210348FFF750FF6420FFF7B7FD10BD07
:100DC000000C014038B58020ADF8000048208DF8B7
:100DD000030069460F48FFF7A9FE40210D48FFF7C1
:100DE0003BFF6420FFF7A2FD80210A48FFF729FF9F
:100DF000044640210748FFF72DFF6420FFF796FDCA
:100E000014208DF8030069460248FFF78FFE204644
:100E100038BD0000000C014008B50121042000F09D
:100E200007F90121402000F003F90120ADF800008E
:100E300028208DF8030069460648FFF777FE182042
:100E4000ADF8000048208DF8030069460248FFF71E
:100E50006DFE08BD0008014000180140034800680D
:100E600080F0200001490860704700000C0C014030
:100E700008B50121402000F0DBF80121082000F036
:100E8000D7F82020ADF8000010208DF803000120D5
:100E90008DF8020069460948FFF748FE2020ADF8AA
:100EA000000069460648FFF741FE20210448FFF78D
:100EB000D3FE20210148FFF7CFFE08BD00180140F6
:100EC000000C014008B50121802000F0B1F84FF47A
:100ED0008070ADF8000004208DF8030001208DF82B
:100EE000020069460148FFF721FE08BD001C0140D1
:100EF00000BFFEE77047000070B5002100230F22FD
:100F0000C47804B3154C246804F4E064C4F5E064C8
:100F1000210AC1F10403CA40447804FA03F1847839
:100F20001440214309010E4C0678A155047804F0C1
:100F30001F050124AC4005786D11AD0005F1E025D9
:100F4000C5F8004109E0047804F01F050124AC4015
:100F5000044D0678761145F8264070BD0CED00E092
:100F600000E400E080E100E008B54FF4C06000F06C
:100F70000FF809208DF8000001208DF801008DF890
:100F800002008DF803006846FFF7B6FF08BD0000B9
:100F900002490143024A1160704700000000FA054F
:100FA0000CED00E008B54FF4A060FFF7F1FF27203B
:100FB0008DF8000000208DF8010001208DF802005E
:100FC0008DF803006846FFF797FF08BD70470000E3
:100FD00029B1064A52690243044B5A6104E0034AAC
:100FE00052698243014B5A61704700000010024071
:100FF00029B1064AD2690243044BDA6104E0034A8C
:10100000D2698243014BDA61704700000010024050
:1010100029B1064A12690243044B1A6104E0034AEB
:1010200012698243014B1A617047000000100240B0
:1010300029B1064A92690243044B9A6104E0034ACB
:1010400092698243014B9A61704700000010024090
:1010500029B1064AD2680243044BDA6004E0034A2D
:10106000D2688243014BDA607047000000100240F2
:101070000F48006840F001000D49086008464068CC
:101080000C4908400A494860084600680A49084077
:10109000074908600846006820F480200860084678
:1010A000406820F4FE0048604FF41F0088607047DD
:1010B000001002400000FFF8FFFFF6FE30B50021EF
:1010C0000022002400232D4D6D6805F00C0121B194
:1010D000042905D0082923D105E0294D056022E027
:1010E000274D05601FE0254D6D6805F47012234DF6
:1010F0006D6805F48034022505EB92421CB9214D40
:10110000554305600BE01D4D6D6805F400351DB1BC
:101110001C4D5543056002E0194D5543056002E042
:10112000174D056000BF00BF144D6D6805F0F0015C
:101130000909154D6B5C0568DD4045600F4D6D6814
:1011400005F4E061090A104D6B5C4568DD4085607F
:101150000A4D6D6805F46051C90A0B4D6B5C45681A
:10116000DD40C560054D6D6805F44041890B074DB4
:101170006B5CC568B5FBF3F5056130BD001002403E
:1011800000127A0000093D00140000202400002015
:1011900010B501460022002300204A11012A02D185
:1011A000094C236806E0022A02D1074C236A01E0B9
:1011B000054C636A01F01F02012494401C400CB1ED
:1011C000012000E0002010BD001002400146002078
:1011D000034A506820F0F000084350607047000058
:1011E000001002401149096821F480310F4A116052
:1011F0001146096821F480211160B0F5803F03D0C9
:10120000B0F5802F0ED106E00849096841F480311D
:10121000064A116007E00549096841F4A021034A24
:10122000116000E000BF00BF7047000000100240E6
:10123000014908607047000000004242014600205A
:10124000034A506820F4E060084350607047000093
:101250000010024001460020034A506820F460500C
:1012600040EAC10050607047001002400149086622
:10127000704700000000424202460020044B5868BC
:1012800020F47C1042EA01031843014B5860704778
:101290000010024001460020034A506820F003007D
:1012A00008435060704700000010024038B500202D
:1012B00000900024002500BF3120FFF769FF05469C
:1012C0000098401C00900098B0F5A06F01D0002D50
:1012D000F2D03120FFF75CFF08B1012400E00024C8
:1012E000204638BD70B50446FFF7C2FE4FF480308B
:1012F000FFF778FFFFF7DAFF0546012D25D1102013
:10130000FFF7DAFB0220FFF7E5FB21462804FFF791
:10131000B3FF0120FFF7AAFF00BF3920FFF738FF16
:101320000028FAD00020FFF751FF4FF48060FFF74C
:1013300085FF0020FFF78EFF0220FFF7ABFF00F0D4
:10134000F3F80020FFF774FF0FE00020FFF7A2FF83
:101350000020FFF73BFF0020FFF770FF0020FFF7A2
:1013600079FF00F0E1F800BFFEE701214020FFF720
:101370005FFE70BD704710B500F002F810BD0000B0
:101380000CB50020019000903348006840F4803094
:101390003149086000BF3048006800F40030009018
:1013A0000198401C0190009818B90198B0F5A06F01
:1013B000F1D12948006800F4003010B101200090FC
:1013C00001E0002000900098012843D123480068E4
:1013D00040F01000214908600846006820F0030032
:1013E00008600846006840F0020008601A4840683B
:1013F000194948600846406848600846406840F41B
:10140000806048600846406820F47C1048600846C8
:10141000406840F4E81048600846006840F080707A
:10142000086000BF0C48006800F000700028F9D088
:101430000948406820F003000749486008464068B2
:1014400040F00200486000BF0348406800F00C0014
:101450000828F9D10CBD0000001002400020024015
:1014600008B501210820FFF7E3FDC020ADF800001A
:1014700014208DF8030003208DF802006946064809
:10148000FFF754FB80210448FFF7E6FB40210248A8
:10149000FFF7E2FB08BD0000000C014070B50446F8
:1014A0000D46FFF75BFC2046FFF72EFCFFF78AFC9A
:1014B0002846FFF729FCFFF785FCFFF74FFC44F0B7
:1014C0000100FFF721FCFFF77DFC0020FFF7C8FBC0
:1014D0000646FFF761FC6420FFF728FA304670BD2E
:1014E00070B506460C461546FFF738FC3046FFF748
:1014F0000BFCFFF767FC2046FFF706FCFFF762FCDA
:101500002846FFF701FCFFF75DFCFFF745FC642070
:10151000FFF70CFA70BD000002480068401C01494A
:10152000086070473000002010B500210020002224
:10153000214B5B6803F00C0121B1042906D0082976
:1015400028D107E01D4B1E4C236027E01B4B1C4C91
:10155000236023E0184B5B6803F47010164B5B6844
:1015600003F48032022303EB904022B9154B43432E
:10157000134C23600DE0104B5B6803F4003323B180
:10158000104B43430E4C236003E00C4B43430C4C85
:10159000236003E0094B0A4C236000BF00BF064BE9
:1015A0005B68C3F30313084CE15C054B1B68CB403D
:1015B000034C236010BD00000010024000127A00AE
:1015C0000000002000093D000400002010B5134871
:1015D000006840F001001149086008464068104961
:1015E00008400E494860084600680E4908400B490B
:1015F00008600846006820F48020086008464068BB
:1016000020F4FE0048604FF41F008860FFF7B3FE2F
:101610004FF000600449086010BD00000010024057
:101620000000FFF8FFFFF6FE08ED00E030B58BB0DC
:1016300005460C4601210846FFF7CAFC1248FFF791
:1016400065F81248009001950020029003940490E0
:10165000802005900020069007902020089000022E
:10166000099000200A9069460748FFF70BF901220C
:1016700040210648001F00F0C8F801210248FFF78A
:1016800039F80BB030BD0000300002400448004083
:1016900030B58BB005460C4600211648FFF72AF8F6
:1016A000A020FFF719F801210846FFF791FC124826
:1016B0000090019510200290039400200490802057
:1016C000059000200690079008904FF40050099074
:1016D00000200A9069460748FFF7D4F801228021CC
:1016E0000548001F00F091F801210248FFF702F8B9
:1016F0000BB030BD1C0002400448004010B540F261
:1017000025510D4800F0E5F8A0B10B4800F09CF918
:10171000044600BF8021084800F0CEF80028F9D028
:101720002146054800F0A4F940F22551024800F096
:1017300051F800BF10BD00000048004000B585B062
:1017400001218804FFF754FC01210820FFF770FCF9
:101750004FF48060ADF8100018208DF813000320BE
:101760008DF8120004A91948FFF7E0F94FF4006062
:10177000ADF8100004208DF8130004A91348FFF7FA
:10178000D5F9134800F04AF84FF4E13000900020FA
:10179000ADF80400ADF80600ADF808000C20ADF877
:1017A0000A000020ADF80C006946094800F0E0F896
:1017B000FFF7F8FB0121064800F01BF8012240F278
:1017C0002551034800F0AFF805B000BD000C014002
:1017D0000048004010B50022002340F66A14A142E0
:1017E00000D100BF0A1201249440A3B2DC4304805C
:1017F00010BD21B1828942F40052828104E08289C5
:101800004DF6FF731A40828170471AB1838A0B43E9
:10181000838202E0838A8B438382704710B504463B
:101820002048844209D101218803FFF711FC0021DF
:101830004FF48040FFF70CFC32E01B48844209D192
:1018400001214804FFF7E4FB00214FF40030FFF7CB
:10185000DFFB25E01548844209D101218804FFF708
:10186000D7FB00214FF48020FFF7D2FB18E010488F
:10187000844209D10121C804FFF7CAFB00214FF4BB
:101880000020FFF7C5FB0BE00A48844208D1012184
:101890000805FFF7BDFB00214FF48010FFF7B8FBF0
:1018A00010BD0000003801400044004000480040E6
:1018B000004C00400050004002460020B1F5007F7F
:1018C00000D100BF13880B400BB1012000E00020C5
:1018D000704770B50246002400230025002040F622
:1018E0006A16B14200D100BFC1F3421501F01F03D7
:1018F000012606FA03F3012D02D19689334006E052
:10190000022D02D1168A334001E0968A33400C1230
:10191000012606FA04F41688344013B10CB10120F4
:1019200000E0002070BDF0B503460024002600252D
:10193000002040F66A17B94200D100BF1846C1F333
:10194000421401F01F06012707FA06F5012C01D108
:101950000C3004E0022C01D1103000E014301AB138
:1019600007682F43076002E00768AF430760F0BDD8
:101970002DE9F04786B005460E460024A24600BF7A
:10198000A1460027B08900B100BF2F462C8A4CF633
:10199000FF700440F08804432C82AC894EF6F310AB
:1019A0000440B08831890843718908430443AC81FD
:1019B000AC8A4FF6FF400440B0890443AC8201A8D2
:1019C000FFF77CFB1F48874202D1DDF810A001E041
:1019D000DDF80CA0A88900F4004040B10AEBCA0071
:1019E00000EB0A1031684900B0FBF1F807E00AEBA0
:1019F000CA0000EB0A1031688900B0FBF1F86420DE
:101A0000B8FBF0F004012009642101FB1089A889CA
:101A100000F4004040B1322000EBC900B0FBF1F00F
:101A200000F00700044308E0322000EB09106421B5
:101A3000B0FBF1F000F00F0004432C8106B0BDE8CC
:101A4000F08700000038014001468888C0F3080094
:101A5000704770B504460D4600BF80212046FFF751
:101A60002BFF0028F9D02946204600F001F870BD70
:101A7000C1F308028280704770B505460C460BE042
:101A800000BF80212846FFF717FF0028F9D02178F2
:101A90002846FFF7DEFF641C20780028F0D10D21D6
:101AA0002846FFF7D6FF0A212846FFF7D2FF70BD70
:101AB00000BFFEE70FB4054B10B503A9044A029816
:101AC00000F0DAF810BC5DF814FB0000A923000850
:101AD0004000002002E008C8121F08C1002AFAD105
:101AE00070477047002001E001C1121F002AFBD19E
:101AF000704700002DE9FF5F82B00021DDE904306E
:101B0000020DDDF840B0034318D044F61050A2F2A5
:101B1000FF3242431514119801281FD0A5EB0B008A
:101B2000401C5FEA000A4FF000064E4FDFF8389184
:101B3000B046504615D5CAF1000413E011980124AF
:101B40004AA3012801D16FEA0B010298119AC0E95A
:101B50000031C0E9024206B0BDE8F09FCBF10000C1
:101B6000DFE704460021404A491842EB0450CDE922
:101B7000001012E0E00707D032463B464046494697
:101B8000FEF7E0FB8046894632463B461046194642
:101B9000FEF7D8FB06460F466410002CEAD1DDE9BB
:101BA0000401DDE90023BAF1000F06DAFEF7CAFBF3
:101BB00042464B46FEF7C6FB05E0FEF735FC4246C3
:101BC0004B46FEF731FC04460E460022284BFEF73A
:101BD000B3FC03D84FF0FF30014607E00022254B4D
:101BE00020463146FEF707FBFEF78DFC102409E086
:101BF000002C0ADB0A220023FEF7CCFA039B3032CA
:101C00001A55641E50EA0102F2D1641C039AC4F111
:101C100011031444119A012A03D0012208430DD163
:101C20000AE0084304D000204FF0110B119072E736
:101C3000A3EB0B056D1E0DE05B4504DD4FF00002CC
:101C400005F1010504E003DA4FF00002A5F10105FA
:101C5000002AECD002981199C0E90231C0E9004590
:101C600079E70000000014400000F03F3000000061
:101C70000000F0430000E03F2DE9FF4F95B09B4688
:101C80008946064600250FE2252877D100242746FD
:101C9000F84A0121059400E0044316F8013F203B77
:101CA00001FA03F01042F7D130782A2811D06FF0F2
:101CB0002F033078A0F13002092A16D8059A44F093
:101CC000020402EB820203EB42021044761C0590F0
:101CD000EFE759F8042B0592002A03DA504244F446
:101CE0000054059044F00204761C30782E2816D15A
:101CF00016F8010F44F004042A280DD06FF02F02CB
:101D00003078A0F13003092B09D807EB870302EBE9
:101D10004303C718761CF3E759F8047B761C307828
:101D20006C280FD006DC4C2817D068280DD06A2804
:101D300014D104E0742810D07A280FD10DE044F4B7
:101D400000140AE044F4801401E044F44014727872
:101D5000824202D104F58014761C761C3078662805
:101D60000BD013DC582877D009DC002875D0452823
:101D7000F6D04628F4D047281AD19DE118E0632810
:101D800035D0642879D0652812D195E1702873D0B8
:101D900008DC6728F1D069286FD06E280DD06F2835
:101DA00006D1B5E073282CD0752875D0782874D06A
:101DB0005A46179990476D1C75E1C4F302500228EA
:101DC00009D003280DD0D9F8001004280DD00D60DB
:101DD00009F1040967E1D9F80010EA17C1E90052D6
:101DE000F6E7D9F800100D80F2E70D70F0E719F86A
:101DF000041B8DF8001000208DF80100EA46012038
:101E000003E059F804AB4FF0FF3061074FF00001D9
:101E100002D40DE008F101018846B9420FDA80458D
:101E2000F8DB1AF808100029F4D108E008F10101E4
:101E300088468142FADB1AF808100029F6D1059885
:101E40005B46A0EB080721463846179A00F094FA43
:101E5000284400EB080507E04DE029E10DE01AF801
:101E6000010B5A4617999047B8F10108F7D25B4623
:101E700021463846179A13E142E00A220092C4F341
:101E800002524FF0000A022A08D059F804CB032A64
:101E90004FEAEC710AD00DE029E02AE009F10701D0
:101EA00021F00702F2E802C1914609E00FFA8CFC2A
:101EB0004FEAEC71042A03D14FFA8CFC4FEAEC7123
:101EC000002907DA0A460021DCF1000C61EB02016F
:101ED0002D2202E0220504D52B228DF804200122B8
:101EE00003E0E20701D02022F7E7904659E00A21FB
:101EF00002E010220DE010214FF0000A00910BE0EB
:101F000010224FF0000A44F004040827009203E076
:101F100008224FF0000A0092C4F30252022A05D0B0
:101F200059F804CB0021032A08D009E009F1070180
:101F300021F00702F2E802C1914605E01FFA8CFC8D
:101F4000042A01D10CF0FF0C4FF00008220728D51D
:101F5000702806D0009B83F0100353EA0A0305D0D3
:101F60000EE040228DF80420012208E05CEA010224
:101F700006D030228DF804208DF80500022290460C
:101F8000009B83F0080353EA0A030AD15CEA0102CA
:101F900001D1620705D530228DF804204FF00108E9
:101FA0007F1E582804D034A003900EA802900DE0A4
:101FB00036A0F9E753466046009AFEF7EBF88446F0
:101FC0000398825C0298401E029002705CEA010055
:101FD000F0D1029806A9081A00F1200A600702D57C
:101FE00024F4803400E00127574502DDA7EB0A0006
:101FF00000E0002000EB0A01009005984144401ADF
:102000000590E00306D45B462146179A059800F038
:10201000B3F90544002706E001A85A46C05D1799A8
:1020200090476D1C7F1C4745F6DBE0030CD55B46F3
:102030002146179A059800F09FF9054404E03020E6
:102040005A46179990476D1C0099481E0090002928
:10205000F5DC08E0029802995A460078491C029182
:10206000179990476D1CBAF10001AAF1010AF1DC41
:1020700065E100000928010030313233343536374C
:1020800038396162636465660000000030313233C4
:102090003435363738394142434445460000000064
:1020A00000F058F90544761C307800287FF4ECAD38
:1020B00019B02846BDE8F08F620700D4062709F161
:1020C000070222F0070CFCE80223E14603F0004877
:1020D0005FEA080C02D00FF2702C0DE05FEA045C9E
:1020E00002D50FF2682C07E05FEAC47C02D00FF241
:1020F000602C01E0AFF2700C4FF0FF3823F000438A
:10210000CDF850C065280CD006DC452809D04628FB
:102110001DD047283DD13DE0662818D067287ED1E4
:1021200038E00021112F01DB112000E0781CCDE9FF
:10213000000106A90EA8FFF7DDFCDDE90F010E9AEC
:1021400003910021009207F1010A04914DE04FF044
:1021500000400097CDE9011006A90EA8FFF7CAFCC0
:10216000DDE90F0203920E9B11990022DDF80CA00D
:102170000093049211B9791C00EB010AB7EB0A0035
:1021800004D4C0F1FF3007F1010A0490AAEB070064
:10219000019044E0012F00DA01270021112F01DD19
:1021A000112000E03846CDE9000106A90EA8FFF78E
:1021B000A1FCDDE90F010E9A039100210491009228
:1021C000BA4621070CD40399514500DA8A46BAF180
:1021D000010F05DD009AAAF10101515C302908D0F8
:1021E000B84202DA10F1040F06DA0121CDE901103C
:1021F00015E0AAF10101E9E7002805DC0499014492
:102200000491AAEB000102E0411C514500DD8A4621
:102210000499401A401C01904FF0004002902007A2
:1022200004D40198504501DBCDF8048000208DF8DE
:102230004F0002980DF14F07B0F1004F25D02B2031
:102240000E9002984FF0020800280CDA40420290EB
:102250002D200E9007E00A210298FDF785FF30310E
:10226000029007F8011DB8F10001A8F10108F2DCA5
:1022700002980028EFD1791E0E980870307800F08F
:10228000200040F0450007F8020D12A8C01B00F125
:1022900007081498007800B1012000EB0A010198AA
:1022A00001EBE07105984144401A401E0590E0039F
:1022B00006D45B462146179A059800F05DF8054460
:1022C0001498007818B15A46179990476D1CE0038E
:1022D00024D55B462146179A059800F04DF8054431
:1022E0001CE00498002807DBDDE90301884203DDD8
:1022F0000098405C179901E0179930205A469047A2
:10230000049805F10105401C04900198401E0190BD
:1023100004D12E205A46179990476D1CBAF100013E
:10232000AAF1010ADDDC05E017F8010B5A461799FE
:1023300090476D1CB8F10001A8F10108F4DC5B4680
:102340002146179A0598ABE62D0000002B000000EF
:10235000200000002DE9F041044600251E461746E6
:10236000880404D405E039462020B0476D1C641E63
:10237000F9D52846BDE8F0812DE9F0410446002555
:102380001E469046C80301D5302700E02027880468
:1023900004D505E041463846B0476D1C641EF9D5AA
:1023A0002846BDE8F081000070B504460D4600BF28
:1023B00080210548FFF780FA0028F9D0E1B20248F1
:1023C000FFF756FB204670BD004800404FF4E01078
:1023D000FEF788FFFEF776FAFEF74AFDFEF764F98E
:1023E000FEF71AFDFEF76EFDFFF7A8F920A12548BC
:1023F000FFF742FBFEF736FB4FF480712248FFF7F0
:1024000015F9FFF72DF8AA220021A020FFF768F8A0
:102410000021A020FFF742F8054629461BA0FFF740
:1024200049FB24E01E480078002820D000201C49E9
:1024300008700A2421461B48FFF72AF98020FEF77E
:102440000BFA30B118A10F48FFF716FB8020FEF7FA
:1024500043F900BF2020FEF7FFF90028FAD0202022
:10246000FEF73AF916A10748FFF706FB00BFD9E7C8
:1024700054657374696E6720444D412E2E2E0D0AEB
:1024800000000000004800404400002052656164E4
:1024900020646174613A203078253032580D0A008A
:1024A0002800002034000020444D41207472616EE9
:1024B00073666572206572726F72210D00000000F4
:1024C000444D41207472616E7366657220636F6D56
:1024D000706C657465210A0001480068704700004F
:1024E0003000002004250008000000204400000007
:1024F000D41A000848250008440000200405000004
:10250000E41A000800A24A040000000000000000D5
:102510000102030406070809000000000102030489
:10252000010203040607080902040608000000006F
:102530000000000000000000546573743636362138
:082540000D0A0000000000007C
:0400000508000131BD
:00000001FF
